:020000040800F2
:10000000781D00201908000865040008670400082E
:100010006B0400086F04000873040008000000006F
:10002000000000000000000000000000770400084D
:1000300079040008000000007B0400087D0400082B
:1000400033080008330800083308000833080008A4
:100050003308000833080008330800083308000894
:100060003308000833080008330800083308000884
:100070003308000833080008330800083308000874
:100080003308000833080008330800083308000864
:100090003308000833080008330800083308000854
:1000A0003308000833080008330800083308000844
:1000B0003308000833080008330800083308000834
:1000C0003308000833080008330800083308000824
:1000D0003308000833080008330800083308000814
:1000E00033080008330800083308000800F002F85D
:1000F00000F03AF80AA090E8000C82448344AAF188
:100100000107DA4501D100F02FF8AFF2090EBAE885
:100110000F0013F0010F18BFFB1A43F0010318473B
:1001200080B70000A0B70000103A24BF78C878C19B
:10013000FAD8520724BF30C830C144BF04680C60ED
:10014000704700000023002400250026103A28BF35
:1001500078C1FBD8520728BF30C148BF0B60704739
:100160001FB51FBD10B510BD02F010FC1146FFF702
:10017000F7FF00F009F802F042FC03B4FFF7F2FFCA
:1001800003BC00F0E9FA00008EB0002211464FF4E3
:10019000E13000F0F0FA90A002F092FB96A002F09D
:1001A0008FFB00F05DFA00F0D1FA01F047F912E19F
:1001B00001F072FA944801F03DFB01F0F2FB0220DD
:1001C00000F0AFFA01F068FA904801F033FB01F05B
:1001D000E8FB022000F0A5FA01F047FA01F0ECFB81
:1001E0008B4801F047FB002542E000243CE000275B
:1001F00036E0002630E040222021864800EB052032
:10020000DF23CDE90930CDE90B121146814800EB1F
:100210000420BF224023CDE90532CDE907017E4904
:1002200095227C4800EB0720CDE902320491019031
:100230006D200090774800EB06224D21184601F012
:10024000D0FB4FF4FA7000F048FA1CB9012F01D12D
:1002500006B910E0701CC6B20A2ECCDB781CC7B2FF
:10026000062FC6DB601CC4B20A2CC0DB681CC5B2FA
:10027000062DBADB00BF01F0F8F901F09DFB01F09B
:1002800090FB032000F04DFAFF205A234FF48472B4
:10029000B0210090614801F0EBFD01F037FAFF203A
:1002A00001F0E0FE012003460022014600900320F9
:1002B00001F00DFF0120022300220F2100900320F6
:1002C00001F005FF012003230022282100900520D2
:1002D00001F0FDFE012004230022372100900520BB
:1002E00001F0F5FE00200121CDE900016E231E2260
:1002F00005210290084601F03BFF00200121CDE9D5
:1003000000011E232D2219460290052001F030FF26
:1003100001200021009150235F22CDE90110052129
:10032000142001F090FF01200022CDE900205F237E
:1003300073222D210290462001F085FF012000212B
:100340000B461E22CDE900103C21C82001F0D7FF4A
:1003500001200090002312224B210190E22001F0A5
:10036000CEFF0020FF212E4B2EA2CDE900106621EA
:10037000142002F030F90020FF212C4B2CA2CDE9F3
:1003800000106421084602F026F90020FF212C4BC2
:100390002CA2CDE900107821282002F01CF90020C1
:1003A000FF212C4B2CA2CDE9001091212F2002F02F
:1003B00012F91A4801F03DF901F0F3FA032000F0B8
:1003C000B0F901F052F901F0F7FA01F0EAFA01F0A0
:1003D000F1FC00BFFEE7EBE60D0A2D2D20322E3793
:1003E000696E6368206570617065722064656D6F09
:1003F000202D2D0D0A00000053544D33324631306C
:1004000033433854360D0A00983A00084E5100081C
:1004100004680008982E0008983800085000002052
:100420003000002061626364656667003800002068
:1004300041424361626330313233343500000000A1
:1004400040000020322E372220452D506170657209
:1004500000000000480000205345454E47524541EA
:1004600054000000704700BFFEE700BFFEE700BF7A
:10047000FEE700BFFEE77047704770477047000017
:100480000CB50020019000906C48006840F480306A
:100490006A49086000BF6948006800F400300090B5
:1004A0000198401C0190009818B90198B0F5A06F10
:1004B000F1D16248006800F4003010B101200090D2
:1004C00001E0002000900098012843D15C480068BA
:1004D00040F010005A4908600846006820F0030008
:1004E00008600846006840F0020008605348406811
:1004F000524948600846406848600846406840F4F1
:10050000806048600846406820F47C1048600846D7
:10051000406840F4E81048600846006840F0807089
:10052000086000BF4548006800F000700028F9D05E
:100530004248406820F0030040494860084640684F
:1005400040F00200486000BF3C48406800F00C00EA
:100550000828F9D10CBD10B5FFF792FF10BD10B5FA
:100560003648006840F00100344908600846406899
:10057000344908403149486008460068324908401B
:100580002E4908600846006820F48020086008466C
:10059000406820F4FE0048604FF41F008860FFF7B9
:1005A000DAFF4FF000602949086010BD10B5002146
:1005B00000200022214B5B6803F00C0121B10429CB
:1005C00006D0082928D107E0214B224C236027E0E0
:1005D0001F4B204C236023E0184B5B6803F4701022
:1005E000164B5B6803F48032022303EB904022B980
:1005F000194B4343174C23600DE0104B5B6803F429
:10060000003323B1144B4343124C236003E0104BDF
:100610004343104C236003E00D4B0E4C236000BF9E
:1006200000BF064B5B68C3F303130C4CE15C094B42
:100630001B68CB40074C236010BD00000010024037
:10064000002002400000FFF8FFFFF6FE08ED00E08A
:1006500000127A000000002000093D000400002084
:1006600010B56FF0040000F046F9344800683449D2
:10067000B0FBF1F0334908700846007800EB400108
:10068000C1EBC0104FF6FF7101EAC0002E4908808F
:1006900010BD01462B4A12784A434FF0E0235A61BD
:1006A00000229A611A46126942F001021A6100BFE3
:1006B0004FF0E022106900F001021AB100F480321C
:1006C000002AF5D04FF0E022126922F001024FF02B
:1006D000E0231A6100229A61704701461A4A128883
:1006E0004A434FF0E0235A6100229A611A46126988
:1006F00042F001021A6100BF4FF0E022106900F0E1
:1007000001021AB100F48032002AF5D04FF0E02245
:10071000126922F001024FF0E0231A6100229A616F
:10072000704730B50446002505E04FF47A70FFF7B6
:10073000D4FF681C85B2A542F7DB30BD0000002065
:1007400000127A00140000201600002010B54FF4AB
:10075000A06000F081F810BD014600BF704700BFE7
:100760002B4A128802F04002002AF9D0C2B2284B6C
:100770001B1D1A80704770B586B004460E4615469C
:10078000012144F2050000F0F1FB4FF40070ADF8D8
:10079000140003208DF8160018208DF8170005A905
:1007A0001C4800F027F94FF48060ADF814000420D5
:1007B0008DF8170005A9174800F01CF925208DF8C1
:1007C00000008DF801608DF8025001208DF80300C3
:1007D000684600F046F801940020ADF80800ADF836
:1007E0000A00ADF80C00ADF810000C20ADF80E00BA
:1007F00001A9074800F061FC012240F2255104489C
:1008000000F0F3FC0121024800F0E3FC06B070BDEB
:100810000038014000080140094880470948004766
:10082000FEE7FEE7FEE7FEE7FEE7FEE7FEE7FEE7A0
:10083000FEE7FEE704480549054A064B70470000FD
:100840005F050008ED00000878170020781D0020E3
:10085000781900207819002031490143314A11608C
:10086000704770B5002100230F22C47804B32D4CCB
:10087000246804F4E064C4F5E064210AC1F10403CF
:10088000CA40447804FA03F18478144021430901F2
:10089000254C0678A155047804F01F050124AC40CE
:1008A00005786D11AD0005F1E025C5F8004109E0BE
:1008B000047804F01F050124AC401C4D0678761125
:1008C00045F8264070BD1A4A0A400243154B1B1FCB
:1008D0001A60704739B1134A121D12680243114B56
:1008E0001B1D1A6006E00F4A121D126882430D4B51
:1008F0001B1D1A607047042808D14FF0E0210969D8
:1009000041F004014FF0E022116107E04FF0E021D7
:10091000096921F004014FF0E022116170470000E5
:100920000000FA050CED00E000E400E080E100E0EA
:1009300080FFFF1F10B50446CC48844208D1012136
:10094000042000F02DFB0021042000F029FB46E0EC
:10095000C748844208D10121082000F021FB002172
:10096000082000F01DFB3AE0C248844208D1012172
:10097000102000F015FB0021102000F011FB2EE0EC
:10098000BD48844208D10121202000F009FB00214C
:10099000202000F005FB22E0B848844208D1012164
:1009A000402000F0FDFA0021402000F0F9FA16E0A6
:1009B000B348844208D10121802000F0F1FA0021DF
:1009C000802000F0EDFA0AE0AE48844207D1012110
:1009D000801500F0E5FA0021A01500F0E1FA10BD45
:1009E00010B50121084600F0DBFA0021012000F0DB
:1009F000D7FA10BD2DE9F04102460025002600205F
:100A000000230024002791F803C00CF00F0591F893
:100A100003C00CF0100CBCF1000F03D091F802C021
:100A20004CEA050591F800C0BCF1000F31D0146804
:100A300000202BE04FF0010C0CFA00F3B1F800C0DD
:100A40000CEA03069E4220D183004FF00F0C0CFAF3
:100A500003F7BC4305FA03FC4CEA040491F803C015
:100A6000BCF1280F06D14FF0010C0CFA00FCC2F8C3
:100A700014C00AE091F803C0BCF1480F05D14FF053
:100A8000010C0CFA00FCC2F810C0401C0828D1D39D
:100A90001460B1F800C0BCF1FF0F34DD54680020D1
:100AA0002EE000F1080C4FF0010808FA0CF3B1F841
:100AB00000C00CEA03069E4221D183004FF00F0CC8
:100AC0000CFA03F7BC4305FA03FC4CEA040491F862
:100AD00003C0BCF1280F05D100F1080C08FA0CF88E
:100AE000C2F8148091F803C0BCF1480F07D100F19F
:100AF000080C4FF0010808FA0CF8C2F81080401CEE
:100B00000828CED35460BDE8F0814FF6FF71018014
:100B1000022181700421C170704702460020936851
:100B20000B400BB1012000E00020704701468868AF
:100B300080B2704702460020D3680B400BB1012001
:100B400000E0002070470146C86880B2704701612C
:100B50007047416170470AB1016100E0416170472F
:100B6000C16070474FF480320A43826181618261C3
:100B700082698269704702460020434B18684FF62D
:100B80008073184040EA021008433F4B18607047DA
:100B90003E49C8617047F0B50A4600230024002191
:100BA000002500F00046B6F1004F02D1364EF16943
:100BB00001E0354E7168C0F3034583B200F440167E
:100BC000B6F5401F08D121F070612F4E766826F0EF
:100BD00070662D4F7E6012E000F48016B6F5801F1F
:100BE00006D1032606FA05F4A14341F0706106E040
:100BF000460D360103FA06F6B14341F0706122B1A9
:100C0000460D360103FA06F6314300F00046B6F110
:100C1000004F02D11C4EF16101E01B4E7160F0BD2E
:100C200030B500228B071C0F0F2303FA04F2164B7A
:100C300008338C1053F824309343134C08348D1030
:100C400044F8253023468C1053F824308C07240FA9
:100C500000FA04F423430C4C08348D1044F825307A
:100C600030BD0A49DC3108607047000000080140CF
:100C7000000C014000100140001401400018014028
:100C8000001C014000200140000001400000204203
:100C9000DF48006840F00100DD4908600846406810
:100CA000DC490840DA49486008460068DA490840EB
:100CB000D74908600846006820F48020086008468C
:100CC000406820F4FE0048604FF41F0088607047C1
:100CD000CF49096821F48031CD4A11601146096875
:100CE00021F480211160B0F5803F03D0B0F5802F52
:100CF0000ED106E0C649096841F48031C44A11604A
:100D000007E0C349096841F4A021C14A116000E02D
:100D100000BF00BF704710B501460022002300202D
:100D20004A11012A02D1BA4C236806E0022A02D1F4
:100D3000B74C236A01E0B64C636A01F01F0201243C
:100D400094401C400CB1012000E0002010BD38B5DB
:100D5000002000900024002500BF3120FFF7DBFFBA
:100D600005460098401C00900098B0F5A06F01D097
:100D7000002DF2D03120FFF7CEFF08B1012400E0B2
:100D80000024204638BD01460020A14A106820F00A
:100D9000F80040EAC10010607047A0490860704741
:100DA000024600209A4B586820F47C1042EA010366
:100DB0001843974B5860704798490866704701463A
:100DC0000020934A506820F00300084350607047A9
:100DD0008F48406800F00C007047014600208C4AA4
:100DE000506820F0F0000843506070470146002032
:100DF000874A506820F4E06008435060704701461D
:100E00000020834A506820F4605040EAC1005060DE
:100E1000704729B17E4A527A02437D4B5A7204E0F0
:100E20007B4A527A82437A4B5A7270477B49D83157
:100E30000860704701460020754A506820F4404021
:100E40000843506070470021714A20321170704A87
:100E500082F82010012802D004280AD104E00121E0
:100E60006B4A2032117005E00521694A2032117069
:100E700000E000BF00BF70476949086070476449DF
:100E8000096A0143624A1162704765494439086042
:100E9000704730B500210022002400235C4D6D68AE
:100EA00005F00C0121B1042905D0082923D105E062
:100EB0005C4D056022E05B4D05601FE0544D6D68A0
:100EC00005F47012524D6D6805F48034022505EB6F
:100ED00092421CB9544D554305600BE04C4D6D6872
:100EE00005F400351DB1504D5543056002E04D4DF0
:100EF0005543056002E04B4D056000BF00BF444D07
:100F00006D6805F0F0010909484D6B5C0568DD402E
:100F100045603F4D6D6805F4E061090A434D6B5C27
:100F20004568DD4085603A4D6D6805F46051C90A39
:100F30003E4D6B5C4568DD40C560354D6D6805F420
:100F40004041890B3A4D6B5CC568B5FBF3F5056113
:100F500030BD29B12E4A526902432D4B5A6104E03B
:100F60002B4A526982432A4B5A61704729B1284A59
:100F700092690243264B9A6104E0254A92698243B2
:100F8000234B9A61704729B1214AD2690243204B11
:100F9000DA6104E01E4AD26982431D4BDA61704770
:100FA00029B11B4AD2680243194BDA6004E0184A9F
:100FB000D2688243164BDA60704729B1144A12692D
:100FC0000243134B1A6104E0114A12698243104B29
:100FD0001A61704712494039086070470F49C86468
:100FE00070470B49C87170470948406A40F08070EB
:100FF00007494862704701460020054A92680A4046
:101000000AB1012000E00020704701498872704752
:10101000001002400000FFF8FFFFF6FE0000424211
:101020008004424200127A0000093D001C000020AA
:101030002C00002010B50446FB48844209D1012150
:101040008803FFF7ADFF00214FF48040FFF7A8FFB2
:1010500032E0F648844209D101214804FFF7ADFF90
:1010600000214FF40030FFF7A8FF25E0F04884424C
:1010700009D101218804FFF7A0FF00214FF480204F
:10108000FFF79BFF18E0EB48844209D10121C80417
:10109000FFF793FF00214FF40020FFF78EFF0BE0D6
:1010A000E548844208D101210805FFF786FF0021A9
:1010B0004FF48010FFF781FF10BD2DE9F04786B097
:1010C00005460E460024A24600BFA1460027B0896F
:1010D00000B100BF2F462C8A4CF6FF700440F08808
:1010E00004432C82AC894EF6F3100440B088318959
:1010F0000843718908430443AC81AC8A4FF6FF4032
:101100000440B0890443AC8201A8FFF7C2FEC64880
:10111000874202D1DDF810A001E0DDF80CA0A8891B
:1011200000F4004040B10AEBCA0000EB0A1031683D
:101130004900B0FBF1F807E00AEBCA0000EB0A1027
:1011400031688900B0FBF1F86420B8FBF0F00401CD
:101150002009642101FB1089A88900F4004040B1F6
:10116000322000EBC900B0FBF1F000F007000443AF
:1011700008E0322000EB09106421B0FBF1F000F030
:101180000F0004432C8106B0BDE8F0874FF41651E0
:10119000016000218180C18001810C2141810021F9
:1011A0008181704710B502460020108A4FF2FF037C
:1011B00018400B884C8823438C882343CC882343D6
:1011C0001843108210BD0021018041808180C180C0
:1011D000704721B1828942F40052828104E0828901
:1011E0004DF6FF731A4082817047F0B50346002424
:1011F00000260025002040F66A17B94200D100BF42
:101200001846C1F3421401F01F06012707FA06F53C
:10121000012C01D10C3004E0022C01D1103000E08F
:1012200014301AB107682F43076002E00768AF4324
:101230000760F0BD1AB1838A0B43838202E0838A80
:101240008B4383827047028A4FF6F0731A40028202
:10125000028A0A430282704782894FF2FF731A4062
:10126000828182890A438281704721B1828942F05A
:101270000202828104E082894FF6FD731A40828166
:101280007047028A4FF6DF731A400282028A0A43CD
:101290000282704721B1028A42F48042028204E055
:1012A000028A4BF6FF731A4002827047C1F30802AC
:1012B0008280704701468888C0F3080070478189A2
:1012C00041F0010181817047028BD2B20283028B0F
:1012D00042EA012202837047028B02F47F420283BA
:1012E000028B0A430283704721B1828A42F02002B6
:1012F000828204E0828A4FF6DF731A40828270474E
:1013000021B1828A42F01002828204E0828A4FF682
:10131000EF731A408282704721B1828A42F008023C
:10132000828204E0828A4FF6F7731A408282704705
:1013300021B1828942F40042828103E08289C2F3B2
:101340000E028281704721B1828A42F40062828259
:1013500004E0828A4FF2FF731A4082827047828AC9
:101360004FF6FB731A408282828A0A438282704758
:1013700021B1828A42F00202828204E0828A4FF620
:10138000FD731A408282704702460020B1F5007F4B
:1013900000D100BF13880B400BB1012000E00020FA
:1013A000704701F40072B2F5007F00D100BFCA435C
:1013B0000280704770B502460024002300250020FB
:1013C00040F66A16B14200D100BFC1F3421501F0E8
:1013D0001F03012606FA03F3012D02D1968933403B
:1013E00006E0022D02D1168A334001E0968A33408E
:1013F0000C12012606FA04F41688344013B10CB11D
:10140000012000E0002070BD10B50022002340F64E
:101410006A14A14200D100BF0A1201249440A3B271
:10142000DC43048010BD000000380140004400404F
:1014300000480040004C00400050004008B5012129
:101440000C20FFF793FD4FF43040ADF80000102062
:101450008DF8030003208DF802006946F948FFF774
:10146000C9FA4FF41060ADF8000010208DF80300A9
:1014700003208DF802006946F348FFF7BBFA4FF4EA
:101480008050ADF8000028208DF8030003208DF86F
:1014900002006946EC48FFF7ADFA6020ADF80000A5
:1014A00010208DF8030003208DF802006946E548FE
:1014B000FFF7A0FA4FF4C070ADF8000048208DF897
:1014C000030003208DF802006946DE48FFF792FA18
:1014D00008BD002115E00022DC4B1A6000F08002FC
:1014E00022B10122D94B08331A6003E00022D74B06
:1014F00008331A604206100E0122D44B1A604A1CAF
:10150000D1B20829E7DB704710B504460020CF4967
:10151000091F0860CE49C1F8A0012046FFF7D9FF96
:101520000120CA49091F086010BD10B504460020FB
:10153000C649091F08600120C549C1F8A00120461D
:10154000FFF7C7FF0120C149091F086010BD06E071
:1015500042F6E06100BF0A1EA1F10101FBD1021EAB
:10156000A0F10100F4D1704700B506E00A20FFF7B2
:10157000EEFFB848006800B900E0F7E700BF00BD23
:1015800010B501460023B14C2360002216E001F0A3
:10159000800323B10123AD4C0834236003E0002312
:1015A000AA4C083423600123A84C23600023AA4CD2
:1015B000C4F8B4314B06190E531CDAB2082AE6DB24
:1015C00010BD10B504460120A049091F0860002085
:1015D000A149C1F8B0019F49703108602046FFF76A
:1015E000CFFF01209C49C1F8B00110BD10B50446E1
:1015F00001209649091F086000209749C1F8B001F1
:1016000001209449703108602046FFF7B9FF01209E
:101610009149C1F8B00110BD00B52220FFF7D1FFFC
:10162000F720FFF7E3FF2020FFF7CBFFFFF79CFF3A
:1016300000BD2DE9F041064616274FF4847824209A
:10164000FFF762FF00250AE0002405E005FB0741E3
:10165000705CFFF76AFF641CBC42F7D36D1C454504
:10166000F2D3FFF7D9FFBDE8F08100B5002079493A
:101670007C3108600A20FFF76AFF01207449C1F835
:10168000AC010A20FFF763FFFFF76EFF1220FFF7A0
:1016900098FFFFF769FF00BD00B500206D497C3160
:1016A00008600A20FFF753FF01206949C1F8AC0127
:1016B0000A20FFF74CFF1220FFF783FFFFF754FFCC
:1016C0001820FFF77EFF8020FFF790FF2220FFF712
:1016D00078FFB120FFF78AFF2020FFF772FFFFF7A6
:1016E00043FF1A20FFF76DFF6420FFF77FFF002004
:1016F000FFF77CFF2220FFF764FF9120FFF776FFC2
:101700002020FFF75EFFFFF72FFF00BD00B5002090
:1017100050497C3108600A20FFF719FF01204C492D
:10172000C1F8AC010A20FFF712FFFFF71DFF1220DE
:10173000FFF747FFFFF718FF0120FFF742FF0A20DE
:10174000FFF705FF0720FFF751FF0A20FFF7FFFE15
:101750000120FFF74BFF0A20FFF7F9FE0020FFF7FB
:1017600045FF1120FFF72DFF0120FFF73FFF442029
:10177000FFF727FF0020FFF739FF1520FFF736FF9F
:101780004520FFF71EFF0720FFF730FF0120FFF77E
:101790002DFF0020FFF72AFF0020FFF727FF3C2046
:1017A000FFF70FFF0520FFF721FF1820FFF709FFC4
:1017B0008020FFF71BFF4E20FFF703FF0020FFF7FD
:1017C00015FF4F20FFF7FDFE0720FFF70FFF012059
:1017D000FFF70CFFFFF7C8FE00BD00B52220FFF7A2
:1017E000F0FEC720FFF702FF2020FFF7EAFEFFF719
:1017F000BBFE00BD00B52220FFF7E3FEFF20FFF790
:10180000F5FE2020FFF7DDFEFFF7AEFE00BD30B590
:1018100004462420FFF7D5FE002504E02078FFF7DA
:10182000E5FE641C6D1C41F2B0608542F6D3FFF703
:10183000F3FE30BD30B504462420FFF7C2FE00257C
:1018400011E00000000C014000080140B481214279
:101850000000214230012142008021422078FFF720
:10186000C5FE641C6D1C41F2B0608542F6D3FFF7E3
:10187000B4FF30BD70B5044626462420FFF7A1FE14
:10188000002504E02078FFF7B1FE641C6D1C41F2D6
:10189000B0608542F6D334462620FFF792FE00253D
:1018A00004E02078FFF7A2FE641C6D1C41F2B060DA
:1018B0008542F6D3FFF7B0FE70BD2DE9FE4F04461A
:1018C0000F4690469946DDF830B0E40804EBDB00A3
:1018D000401E0290002001903D46FF2F02D9280AA9
:1018E0000190EDB20020009007EB0900461EFF2E8C
:1018F00002D9300A0090F6B20020FE4908600A20A2
:10190000FFF725FE0120FC49C1F8AC010A20FFF7D2
:101910001EFE3C20FFF755FE8020FFF767FE4420A7
:10192000FFF74FFEE0B2FFF761FE0299C8B2FFF782
:101930005DFE4520FFF745FEE8B2FFF757FE01992F
:10194000C8B2FFF753FEF0B2FFF750FE0099C8B2DD
:10195000FFF74CFE4E20FFF734FEE0B2FFF746FEE5
:101960004F20FFF72EFEE8B2FFF740FE0199C8B204
:10197000FFF73CFE2420FFF724FE4FF0000A07E0AB
:1019800098F80000FFF732FE08F101080AF1010A99
:1019900009FB0BF0BAEBD00FF2D3FFF72BFFBDE83A
:1019A000FE8F00B51020FFF70CFE0120FFF71EFE92
:1019B0006420FFF7CCFD00BD30B52420FFF701FE09
:1019C000002408E0002503E0FF20FFF70FFE6D1C58
:1019D000162DF9D3641CB4F5847FF3D3FFF71CFEF6
:1019E00030BD2DE9FF4F81B08346DDE919784FEA1C
:1019F000DB0B0BEBD800401E00904FF00009029863
:101A0000451E0298FF2802D94FEA1529EDB24FF082
:101A1000000A02983844441EFF2C02D94FEA142AC7
:101A2000E4B20020B34908600A20FFF790FD0120CE
:101A3000B149C1F8AC010A20FFF789FD3C20FFF74E
:101A4000C0FD8020FFF7D2FD4420FFF7BAFD0BF068
:101A5000FF00FFF7CBFD0099C8B2FFF7C7FD452097
:101A6000FFF7AFFDE8B2FFF7C1FD09F0FF00FFF798
:101A7000BDFDE0B2FFF7BAFD0AF0FF00FFF7B6FDCB
:101A80004E20FFF79EFD0BF0FF00FFF7AFFD4F204C
:101A9000FFF797FDE8B2FFF7A9FD09F0FF00FFF798
:101AA000A5FD2420FFF78DFD002607E003990878A7
:101AB000FFF79CFD0398401C0390761C07FB08F081
:101AC000B6EBD00FF2D30498C0080490049800EB52
:101AD000D800401E00904FF000090E98451E0E9849
:101AE000FF2802D94FEA1529EDB24FF0000A0E98EF
:101AF0003844441EFF2C02D94FEA142AE4B2442091
:101B0000FFF75FFD0499C8B2FFF770FD0099C8B2F6
:101B1000FFF76CFD4520FFF754FDE8B2FFF766FDC7
:101B200009F0FF00FFF762FDE0B2FFF75FFD0AF08A
:101B3000FF00FFF75BFD4E20FFF743FD0499C8B29D
:101B4000FFF754FD4F20FFF73CFDE8B2FFF74EFDD5
:101B500009F0FF00FFF74AFD2420FFF732FD0026C1
:101B600007E00F990878FFF741FD0F98401C0F9090
:101B7000761C07FB08F0B6EBD00FF2D31098C00824
:101B80001090109800EBD800401E00904FF0000914
:101B90001198451E1198FF2802D94FEA1529EDB278
:101BA0004FF0000A11983844441EFF2C02D94FEA26
:101BB000142AE4B24420FFF704FD1099C8B2FFF7DD
:101BC00015FD0099C8B2FFF711FD4520FFF7F9FC9C
:101BD000E8B2FFF70BFD09F0FF00FFF707FDE0B2E9
:101BE000FFF704FD0AF0FF00FFF700FD4E20FFF7AE
:101BF000E8FC1099C8B2FFF7F9FC4F20FFF7E1FCB1
:101C0000E8B2FFF7F3FC09F0FF00FFF7EFFC242038
:101C1000FFF7D7FC002607E012990878FFF7E6FCEB
:101C20001298401C1290761C07FB08F0B6EBD00F00
:101C3000F2D31398C0081390139800EBD800401EFD
:101C400000904FF000091498451E1498FF2802D9FF
:101C50004FEA1529EDB24FF0000A14983844441E9B
:101C6000FF2C02D94FEA142AE4B24420FFF7A9FC62
:101C70001399C8B2FFF7BAFC0099C8B2FFF7B6FCD7
:101C80004520FFF79EFCE8B2FFF7B0FC09F0FF002B
:101C9000FFF7ACFCE0B2FFF7A9FC0AF0FF00FFF78A
:101CA000A5FC4E20FFF78DFC1399C8B2FFF79EFCF0
:101CB0004F20FFF786FCE8B2FFF798FC09F0FF0021
:101CC000FFF794FC2420FFF77CFC002607E0159921
:101CD0000878FFF78BFC1598401C1590761C07FBC5
:101CE00008F0B6EBD00FF2D31698C00816901698ED
:101CF00004E00000AC0121420000214200EBD800CA
:101D0000401E00904FF000091798451E1798FF28B5
:101D100002D94FEA1529EDB24FF0000A179838445E
:101D2000441EFF2C02D94FEA142AE4B24420FFF7E4
:101D300048FC1699C8B2FFF759FC0099C8B2FFF7E2
:101D400055FC4520FFF73DFCE8B2FFF74FFC09F0DA
:101D5000FF00FFF74BFCE0B2FFF748FC0AF0FF0082
:101D6000FFF744FC4E20FFF72CFC1699C8B2FFF792
:101D70003DFC4F20FFF725FCE8B2FFF737FC09F0E8
:101D8000FF00FFF733FC2420FFF71BFC002607E0D1
:101D900018990878FFF72AFC1898401C1890761CB0
:101DA00007FB08F0B6EBD00FF2D3FFF723FD05B029
:101DB000BDE8F08F0025002422A000F081FD00BFC7
:101DC0002448006878B975B90A20FEF786FC2148D6
:101DD000006898B9012501201E49783108601EA0CD
:101DE00000F06EFD0AE01B480068012806D1012DB5
:101DF00004D1002500201749783108601548001DDE
:101E0000006888B984B90A20FEF767FC1148001DF4
:101E100000680028D4D1012401200E497C310860DB
:101E200010A000F04DFDCBE70A48001D0068012816
:101E3000C6D1012CC4D10024002006497C310860A1
:101E4000BEE700004C6564204B6579205461736BDC
:101E50000D0A00001C8121424B31205072657373C2
:101E60000D0A00004B322050726573730D0A00009A
:101E70002DE9F0410646069F0020FE4C20602046DA
:101E800006600181428187810C464FEAE17C01EBCB
:101E90005C7C4FEAEC0CA1EBCC0CBCF1000F07D141
:101EA0000D464FEAE57C05EB5C7C4FEAEC0C08E064
:101EB00008464FEAE17C01EB5C7C4FEAEC0C0CF14C
:101EC000010CDFF8B083A8F812C040468282C381BB
:101ED0000120444620820BB1B42B03D1E548818018
:101EE000C28002E0E3488280C180BDE8F081E14920
:101EF0000860704730B15A2804D0B42802D0B0F539
:101F0000877F01D1DB49C881704728B1012803D000
:101F1000022801D0032801D1D649088270472DE953
:101F2000F04103460C461746D24EB6889E4203DB6C
:101F3000D04EF688A64201DABDE8F081CD4EF68992
:101F40003EB15A2E08D0B42E0DD0B6F5877F1CD1E5
:101F500014E01846214619E0C64E3689361B761E17
:101F6000B0B2194612E0C34E3689F61A761EB0B2E8
:101F7000C04E7689361B761EB1B207E02046BD4EB4
:101F80007689F61A761EB1B200E0D5E700BFB94EE9
:101F9000368A36B1012E05D0022E09D0032E18D173
:101FA0000CE017E0B34E3689361A761EB0B211E057
:101FB000B04E7689761A761EB1B20BE0AD4E3689F8
:101FC000361A761EB0B2AB4E7689761A761EB1B24C
:101FD00000E0B1E700BFA74E3689864203DBA54E7D
:101FE00076898E4200DAA7E706464FEAE07C00EBEE
:101FF0005C7C4FEAEC0CDFF87C82B8F8128001FBC5
:1020000008C29C4E3668B55CAFB906464FEAE07C24
:1020100000EB5C7C4FEAEC0CA0EBCC084FF0800CA2
:102020004CFA08FC25EA0C0CDFF84882D8F800804E
:1020300008F802C014E006464FEAE07C00EB5C7C46
:102040004FEAEC0CA0EBCC084FF0800C4CFA08FCEB
:102050004CEA050CDFF81C82D8F8008008F802C0B2
:1020600000BF69E730B50246002110E0002008E01B
:10207000804C648A01FB04037E4D2D68EA54441CA5
:10208000A0B27C4C648A8442F2DC4C1CA1B2794C34
:10209000A48A8C42EADC30BD2DE9F04706460F46A3
:1020A00090469946DDF820A03D460CE0344606E017
:1020B000524629462046FFF732FF601C84B2444551
:1020C000F6DB681C85B24D45F0DBBDE8F0872DE9F5
:1020D000F0470746884691461C46DDF820A0654833
:1020E0008088B84203DB6348C088404501DABDE818
:1020F000F087BAF1010F23D100251CE0002613E080
:102100007819001B03D408EB0600001B00D50FE074
:1021100008EB0602121B91B27A19121B90B24A46C2
:10212000FFF7FDFE701C06B26000401EB042E7DC07
:1021300000BF681C05B26000401EA842DEDC15E04E
:10214000002511E000260BE008EB0602521E91B2BA
:102150007A19521E90B24A46FFF7E1FE701C06B291
:10216000A642F1DB681C05B2A542EBDB00BFBEE76F
:102170002DE9F04F86B004460D4616461F46A04690
:102180000595301B01D4301B00E0A01B0490781B88
:1021900001D4781B00E0E81B82460498A0EB0A09F2
:1021A000B44202DD4FF0FF3000E001200290BD425A
:1021B00002DD4FF0FF3000E0012001904FF0000BF6
:1021C00000BF0BF1010B119801280ED103209BFBDE
:1021D000F0F100FB11B040B9012000904046DDE96C
:1021E0000F230599FFF773FF09E0119838B9012013
:1021F00000904046DDE90F230599FFF768FFB045E1
:1022000003D10598B84200D119E04FEA4900039084
:10221000CAF100010398884205DBA9EB0A0902987C
:1022200040441FFA80F8DDE903018842C9DC0498C4
:10223000814401990598084480B20590C1E700BF28
:1022400006B0BDE8F08F2DE9FE4F81460F4692465D
:102250009846DDE90DB50C9C0648808848450EDBA4
:102260000448C088B8420ADB02488088504506DB33
:10227000004801E000170020C088404501DABDE8B1
:10228000FE8FBBF1010F10D13E460BE0002033461C
:1022900052463146CDE9004502904846FFF768FFB7
:1022A000701C86B24645F1DB27E000203B465246D3
:1022B0003946CDE9004502904846FFF759FF002016
:1022C00043464A463946CDE9004502904846FFF765
:1022D0004FFF0020434652463946CDE90045029063
:1022E0005046FFF745FF0020434652464146CDE9A0
:1022F000004502904846FFF73BFF00BFBFE72DE9CE
:10230000F84F05460E4691469B4600244F46C9F1BC
:10231000010AFE488088A84203DBFC48C088B0421E
:1023200004DAFBA000F0CCFABDE8F88FC5E00A980B
:10233000002850D10120F21991B22A19009090B2D0
:102340005A460B9BFFF7C3FE0120321991B2EA19DE
:10235000009090B25A460B9BFFF7B9FE0120F2198C
:1023600091B22A1B009090B25A460B9BFFF7AFFE2A
:102370000120321991B2EA1B009090B25A460B9B91
:10238000FFF7A5FE0120F21B91B22A1B009090B22C
:102390005A460B9BFFF79BFE0120321B91B2EA1BB2
:1023A000009090B25A460B9BFFF791FE0120F21B62
:1023B00091B22A19009090B25A460B9BFFF787FE04
:1023C0000120321B91B2EA19009090B25A460B9B41
:1023D000FFF77DFE62E00A9801285FD1A0465BE02E
:1023E000012006EB080291B22A19009090B25A46D9
:1023F0000B9BFFF76CFE0120321991B205EB08022E
:10240000009090B25A460B9BFFF761FE012006EB4D
:10241000080291B22A1B009090B25A460B9BFFF71C
:1024200056FE0120321991B2A5EB0802009090B23D
:102430005A460B9BFFF74BFE0120A6EB080291B218
:102440002A1B009090B25A460B9BFFF740FE0120DA
:10245000321B91B2A5EB0802009090B25A460B9B3A
:10246000FFF735FE0120A6EB080291B22A19009071
:1024700090B25A460B9BFFF72AFE0120321B91B205
:1024800005EB0802009090B25A460B9BFFF71FFE27
:1024900008F101001FFA80F8B845A1DDBAF1000F7C
:1024A00003DA6000C01C824405E0E01B4000401DD0
:1024B0008244781E87B2601C84B2A7423FF737AFD0
:1024C00000BF31E72DE9FC4F0746884692461D467E
:1024D000DDF82CB08D488088B84203DB8B48C0887B
:1024E000404501DABDE8FC8FA988CA1701EB52729A
:1024F000D2100846CB1701EB5373DB10A1EBC303DB
:102500000BB1012300E000231A44EB885A4392B236
:102510000092AAF12000009A504301902968019886
:1025200001EB0009002651E0002440E0BBF1FF0F61
:1025300014D1E11704EB5171C910A4EBC102802141
:10254000114199F80020114029B308EB060291B21D
:102550003A1990B20C9AFFF7E2FC1CE0E11704EB89
:102560005171C910A4EBC1028021114199F80020DA
:10257000114041B108EB060291B23A1990B20C9A9F
:10258000FFF7CDFC07E008EB060291B23A1990B2D2
:102590005A46FFF7C4FCE11704EB5171C910A4EBD4
:1025A000C101072901D109F10109601C84B2A88881
:1025B000A042BBDCA888C11700EB5171C910A0EB89
:1025C000C10109B109F10109701C86B2E888B04265
:1025D000AADC00BF86E72DE9FC4F07468846154672
:1025E0001C46DDE90BAB3E46C14620E0A0883044E6
:1025F00046498988884204DD3E46E08848441FFAFF
:1026000080F9E08848444149C988884203DDC146D1
:10261000A088304486B2CDE900AB15F8012B2346E3
:1026200049463046FFF74EFFA088304486B22878EE
:102630000028DBD1BDE8FC8F2DE9F04FADF5037D1F
:1026400006460F4615469946DDF834B2DDF830A24D
:102650000024A0464FF4807143A800F03DF94FF4E8
:10266000807103A800F038F943A8029027488088B9
:10267000B04203DB2548C088B84203DA0DF5037D7C
:10268000BDE8F08F0CE00A2095FBF0F100FB115043
:10269000303003A90855601C04B20A2095FBF0F500
:1026A000002DF0D10BE0601E03A9085C43A901F8DE
:1026B000080008F101000FFA80F8601E04B2002C37
:1026C000F1DC4B46CDE900AB39463046029AFFF7C4
:1026D00082FF00BFD2E72DE9FF4F85B00546904647
:1026E0009A46DDE9126716A207CA02AC07C4BAF817
:1026F000044098F804000A2190FBF1F002A911F8B7
:10270000009053464A46CDE900671FE000170020BD
:102710004552523A636972636C652063656E7465F5
:102720007220706F696E74206F7574206F662073ED
:10273000637265656E2061726561210D0A0000009B
:10274000303132333435363738390000284606996F
:10275000FFF7B8FE98F804000A2190FBF1F201FBA4
:10276000120002A911F80090291988B253464A466E
:10277000CDE900670699FFF7A5FEA146E11704EB36
:1027800091712A1902EBA101A34604EBDB7201EB64
:10279000620188B253463A22CDE900670699FFF7F5
:1027A00091FE98F805000A2190FBF1F002A911F8BA
:1027B00000B004EBD97105EB440202EB610188B271
:1027C00053465A46CDE900670699FFF77BFE98F815
:1027D00005000A2190FBF1F201FB120002A911F899
:1027E00000B004EBD97104EB44022A4402EB61010E
:1027F00088B253465A46CDE900670699FFF762FE54
:1028000004EBD97105EB840202EB6101A346E217E8
:1028100004EB9272A1EBA20188B253463A22CDE9B1
:1028200000670699FFF74EFE98F806000A2190FB14
:10283000F1F002A911F8009004EB8401294488B258
:1028400053464A46CDE900670699FFF73BFE98F8E4
:1028500006000A2190FBF1F201FB120002A911F817
:10286000009004EB440105EB410188B253464A460F
:10287000CDE900670699FFF725FE09B0BDE8F08FA6
:1028800030B502460023002111E0002009E00A4C87
:10289000648A01FB0403D45C074D2D68EC54441C8E
:1028A000A0B2054C648A8442F1DC4C1CA1B2024CFB
:1028B000A48A8C42E9DC30BD00170020704700007C
:1028C0000FB4044910B503AA029800F031F810BC07
:1028D0005DF814FB180000204FF0000200B513460D
:1028E00094469646203922BFA0E80C50A0E80C5030
:1028F000B1F12001BFF4F7AF090728BFA0E80C50E1
:1029000048BF0CC05DF804EB890028BF40F8042BD9
:1029100008BF704748BF20F8022B11F0804F18BF46
:1029200000F8012B704770477047704770470000F0
:10293000074B70B50D467B4400F011F8044628465D
:1029400000F020F810B14FF0FF3070BD204670BD90
:1029500025DEFFFF01694A1C02610878704700B557
:102960008FB0CDE901310021059105497944CDE9C8
:1029700003101146684600F02EF80FB000BD0000AD
:10298000E5FFFFFF007B00F080007047754600F018
:102990003FF8AE4605006946534620F007008546DD
:1029A00018B020B5FDF746FFBDE820404FF0000607
:1029B0004FF000074FF000084FF0000B21F0070127
:1029C000AC46ACE8C009ACE8C009ACE8C009ACE86A
:1029D000C0098D4670472DE9F04106460024D6E92E
:1029E0000170F5688046304603E04146B847641CF4
:1029F0003046A8470028F8D12046BDE8F08110B540
:102A00000446AFF300802046BDE81040FDF7B5BB9B
:102A10000048704718170020FFFFFFFFFFFFFFFF70
:102A2000FFFFFFFFFFFFFFFFFFFFFFFFFFFFFFFFB6
:102A3000FFFFFFFFFFFFFFFFFFFFFFFFFFFFFFFFA6
:102A4000FFFFFFFFFFDFFFF7FFDFFFF7FFDFFFF70E
:102A5000FFDFFFE7FF800007FF000007FF00000720
:102A6000FFFFFFE7FFFFFFF7FFFFFFF7FFFFFFF7A6
:102A7000FFFFFFFFFFFFFFFFFFFFFFFFFFFFFFFF66
:102A8000FFFFFFFFFFFFFFFFFFFFFFFFFFFFFFFF56
:102A9000FFFFFFFFFFFFFFFFFFFFFFFFFFFFFFFF46
:102AA000FFFFFFFFFFFFFFFFFFFFFFFFFFFFFFFF36
:102AB000FFFFFFFFFFFFFFFFFFFFFFFFFFFFFFFF26
:102AC000FFE1FFC7FFC1FF87FF99FF27FF3FFE67B9
:102AD000FF7FFCE7FF7FF9E7FF7FF3E7FF7FE7E793
:102AE000FF3FCFE7FF1F1FE7FF803FC7FF807E0745
:102AF000FFE0FE1FFFFFFFFFFFFFFFFFFFFFFFFFE6
:102B0000FFFFFFFFFFFFFFFFFFFFFFFFFFFFFFFFD5
:102B1000FFFFFFFFFFFFFFFFFFFFFFFFFFFFFFFFC5
:102B2000FFFFFFFFFFFFFFFFFFFFFFFFFFFFFFFFB5
:102B3000FFFFFFFFFFFFFFFFFFFFFFFFFFFFFFFFA5
:102B4000FFC3FE1FFF83FE0FFF83FE0FFF3FFFE764
:102B5000FF7FBFF7FF7FBFF7FF7FBFF7FF3F1FF785
:102B6000FF1E1FE7FF804FCFFF80C00FFFE1E01F78
:102B7000FFFFF87FFFFFFFFFFFFFFFFFFFFFFFFFEC
:102B8000FFFFFFFFFFFFFFFFFFFFFFFFFFFFFFFF55
:102B9000FFFFFFFFFFFFFFFFFFFFFFFFFFFFFFFF45
:102BA000FFFFFFFFFFFFFFFFFFFFFFFFFFFFFFFF35
:102BB000FFFFFFFFFFFFFFFFFFFFFFFFFFFFFDFF27
:102BC000FFFFF1FFFFFFE1FFFFFF8DFFFFFE1DFF96
:102BD000FFFC7DFBFFF0FDFBFFE3FDFBFF8000033F
:102BE000FF000003FF000003FF000003FFFFFDFBE9
:102BF000FFFFFDFBFFFFFDFBFFFFFFFFFFFFFFFFF1
:102C0000FFFFFFFFFFFFFFFFFFFFFFFFFFFFFFFFD4
:102C1000FFFFFFFFFFFFFFFFFFFFFFFFFFFFFFFFC4
:102C2000FFFFFFFFFFFFFFFFFFFFFFFFFFFFFFFFB4
:102C3000FFFFFFFFFFFFFFFFFFFFFFFFFFFFFFFFA4
:102C4000FFFFFE1FFFF81E0FFF001E67FF073FF785
:102C5000FF3E7FF7FF3EFFF7FF3EFFF7FF3EFFF728
:102C6000FF3E7FE7FF3E3F8FFF3F000FFF3F801F8C
:102C7000FF3FE07FFFFFFFFFFFFFFFFFFFFFFFFFC3
:102C8000FFFFFFFFFFFFFFFFFFFFFFFFFFFFFFFF54
:102C9000FFFFFFFFFFFFFFFFFFFFFFFFFFFFFFFF44
:102CA000FFFFFFFFFFFFFFFFFFFFFFFFFFFFFFFF34
:102CB000FFFFFFFFFFFFFFFFFFFFFFFFFFFFFFFF24
:102CC000FFFE00FFFFF0003FFFE0001FFFC38F0F7C
:102CD000FF9F9FC7FF3F3FE7FF3F7FF7FF7F7FF7E4
:102CE000FF7F7FF7FF7F3FE7FF0F1FCFFF8F800F33
:102CF000FFCFC01FFFFFE07FFFFFFFFFFFFFFFFFD2
:102D0000FFFFFFFFFFFFFFFFFFFFFFFFFFFFFFFFD3
:102D1000FFFFFFFFFFFFFFFFFFFFFFFFFFFFFFFFC3
:102D2000FFFFFFFFFFFFFFFFFFFFFFFFFFFFFFFFB3
:102D3000FFFFFFFFFFFFFFFFFFFFFFFFFFFFFFFFA3
:102D4000FFC3FFFFFF03FFFFFF0FFFFFFF1FFFFF9B
:102D5000FF3FFE07FF3FF007FF3F8007FF3E0FFFEB
:102D6000FF387FFFFF21FFFFFF07FFFFFF1FFFFF70
:102D7000FF3FFFFFFFFFFFFFFFFFFFFFFFFFFFFF23
:102D8000FFFFFFFFFFFFFFFFFFFFFFFFFFFFFFFF53
:102D9000FFFFFFFFFFFFFFFFFFFFFFFFFFFFFFFF43
:102DA000FFFFFFFFFFFFFFFFFFFFFFFFFFFFFFFF33
:102DB000FFFFFFFFFFFFFFFFFFFFFFFFFFFFF83FEA
:102DC000FFE1F01FFFC0E00FFF8047CFFF1C0FE7C0
:102DD000FF3E1FF7FF7F1FF7FF7F9FF7FF7F8FF7F4
:102DE000FF3F87E7FF1E03CFFF80600FFFC0F01F8C
:102DF000FFE1F83FFFFFFFFFFFFFFFFFFFFFFFFFC8
:102E0000FFFFFFFFFFFFFFFFFFFFFFFFFFFFFFFFD2
:102E1000FFFFFFFFFFFFFFFFFFFFFFFFFFFFFFFFC2
:102E2000FFFFFFFFFFFFFFFFFFFFFFFFFFFFFFFFB2
:102E3000FFFFFFFFFFFFFFFFFFFFFFFFFFF03FFF71
:102E4000FFC01F8FFF800F8FFF8FC787FF3FE7F700
:102E5000FF7FF7F7FF7FF7F7FF7FF7E7FF7FE7C712
:102E6000FF3FCF8FFF8F8C1FFFC0003FFFE0007F31
:102E7000FFF803FFFFFFFFFFFFFFFFFFFFFFFFFF65
:102E8000FFFFFFFFFFFFFFFFFFFFFFFFFFFFFFFF52
:102E9000FFFFFFFFFFFFFFFFFFFFFFFFFFFFFFFF42
:102EA000FFFFFFFFFFFFFFFFFFFFFFE003FFFFFF4D
:102EB000FFFFFC00001FFFFFFFFFE0000003FFFF1C
:102EC000FFFF80000000FFFFFFFE000000003FFF4B
:102ED000FFFC000000001FFFFFF8000000000FFFD4
:102EE000FFF003FFFFE007FFFFE03FFFFFFE03FFF0
:102EF000FFE0FFFFFFFF83FFFFC1FFFFFFFFC1FFF9
:102F0000FFC7FFFFFFFFF1FFFFC7FFFFFFFFF1FF5D
:102F1000FFCFFFFFFFFFF9FFFFCFFFFFFFFFF9FF2D
:102F2000FFC7FFFFFFFFF1FFFFC7FFFFFFFFF1FF3D
:102F3000FFC3FFFFFFFFE1FFFFE0FFFFFFFF83FF96
:102F4000FFE03FFFFFFE03FFFFF003FFFFC007FFAF
:102F5000FFF8000000000FFFFFFC000000001FFF53
:102F6000FFFE000000003FFFFFFF80000000FFFFAA
:102F7000FFFFE0000003FFFFFFFFFE00003FFFFF39
:102F8000FFFFFFFFFFFFFFFFFFFFFFFFFFFFFFFF51
:102F9000FFFFFFFFFFFFFFFFFFFFFFFFFFFFFFFF41
:102FA000FFFFFFFFFFFFFFFFFFFFFFFFFFFFFFFF31
:102FB000FFFFFFFFFFFFFFFFFFFFFFFFFFFFFFFF21
:102FC000FFFFFFFFFFFFFFFFFFFCFFFFFFFFF3FF20
:102FD000FFFCFFFFFFFFF3FFFFFCFFFFFFFFF3FF1F
:102FE000FFFCFFFFFFFFF3FFFFFCFFFFFFFFF3FF0F
:102FF000FFFCFFFFFFFFF3FFFFF8FFFFFFFFE3FF13
:10300000FFF80000000003FFFFF00000000003FFD6
:10301000FFF00000000003FFFFC00000000003FFFE
:10302000FFC00000000003FFFFC00000000003FF1E
:10303000FFFFFFFFFFFFC3FFFFFFFFFFFFFFE3FFF8
:10304000FFFFFFFFFFFFF3FFFFFFFFFFFFFFF3FFA8
:10305000FFFFFFFFFFFFF3FFFFFFFFFFFFFFF3FF98
:10306000FFFFFFFFFFFFF3FFFFFFFFFFFFFFFFFF7C
:10307000FFFFFFFFFFFFFFFFFFFFFFFFFFFFFFFF60
:10308000FFFFFFFFFFFFFFFFFFFFFFFFFFFFFFFF50
:10309000FFFFFFFFFFFFFFFFFFFFFFFFFFFFFFFF40
:1030A000FFFFFFFFFFFFFFFFFFFFFFFFFFFFE3FF4C
:1030B000FFFFC1FFFFFF83FFFFFF00FFFFFE03FFD6
:1030C000FFFC007FFFFC03FFFFF8007FFFF803FF1A
:1030D000FFF0007FFFF043FFFFF0007FFFE1C3FF41
:1030E000FFE1F07FFF83C3FFFFE3FFFFFF07C3FFA5
:1030F000FFE7FFFFFE0FC3FFFFC7FFFFFC1FC3FF7C
:10310000FFCFFFFFF83FC3FFFFCFFFFFF07FC3FFFD
:10311000FFCFFFFFE0FFC3FFFFCFFFFFC1FFC3FFF4
:10312000FFCFFFFF83FFC3FFFFC7FFFF07FFC3FF03
:10313000FFC7FFFC0FFFC3FFFFC3FFF01FFFC3FF6D
:10314000FFE0FFC03FFFC3FFFFE000007FFF83FF02
:10315000FFF00000FFFF83FFFFF00001FFFE03FF11
:10316000FFF80007FFF003FFFFFC000FFFE003FF85
:10317000FFFF007FFFE00FFFFFFFFFFFFFE7FFFF05
:10318000FFFFFFFFFFFFFFFFFFFFFFFFFFFFFFFF4F
:10319000FFFFFFFFFFFFFFFFFFFFFFFFFFFFFFFF3F
:1031A000FFFFFFFFFFFFFFFFFFFFFFFFFFFFFFFF2F
:1031B000FFFFFFFFFFF87FFFFFFE07FFFFF01FFF8E
:1031C000FFFC03FFFFE00FFFFFF803FFFFE007FF37
:1031D000FFF003FFFFE007FFFFE003FFFFE003FF57
:1031E000FFE3C3FFFFF0E3FFFFE7FFFFFFFFF1FF98
:1031F000FFC7FFFCFFFFF1FFFFCFFFFCFFFFF9FF61
:10320000FFCFFFFCFFFFF9FFFFCFFFFCFFFFF9FF40
:10321000FFCFFFFCFFFFF9FFFFCFFFF87FFFF9FFB4
:10322000FFC7FFF87FFFF1FFFFC3FFF07FFFF1FF54
:10323000FFC1FFE23FFFE1FFFFE07F821FFFC3FF0F
:10324000FFE000030FFF83FFFFF0000701FC07FF13
:10325000FFF8000F800007FFFFFC001F80000FFF3A
:10326000FFFE003FC0001FFFFFFF80FFF0003FFF99
:10327000FFFFFFFFF800FFFFFFFFFFFFFF07FFFF5C
:10328000FFFFFFFFFFFFFFFFFFFFFFFFFFFFFFFF4E
:10329000FFFFFFFFFFFFFFFFFFFFFFFFFFFFFFFF3E
:1032A000FFFFFFFFFF7FFFFFFFFFFFFFFC7FFFFF31
:1032B000FFFFFFFFF87FFFFFFFFFFFFFE07FFFFF44
:1032C000FFFFFFFF807FFFFFFFFFFFFF027FFFFF8A
:1032D000FFFFFFFC0E7FFFFFFFFFFFF83E7FFFFFBA
:1032E000FFFFFFE07E7FFFFFFFFFFF81FE7FFFFF0D
:1032F000FFFFFF03FE7FFFFFFFFFFC0FFE7FF3FFDB
:10330000FFFFF83FFE7FF3FFFFFFE07FFE7FF3FF4D
:10331000FFFFC1FFFE7FF3FFFFFF03FFFE7FF3FF11
:10332000FFFC0FFFFE7FF3FFFFF80000000003FF2C
:10333000FFE00000000003FFFFE00000000003FFCB
:10334000FFE00000000003FFFFE00000000003FFBB
:10335000FFE00000000003FFFFFFFFFFFE7FF3FF21
:10336000FFFFFFFFFE7FF3FFFFFFFFFFFE7FF3FF87
:10337000FFFFFFFFFE7FF3FFFFFFFFFFFE7FF3FF77
:10338000FFFFFFFFFE7FF3FFFFFFFFFFFE7FFFFF5B
:10339000FFFFFFFFFFFFFFFFFFFFFFFFFFFFFFFF3D
:1033A000FFFFFFFFFFFFFFFFFFFFFFFFFFFFFFFF2D
:1033B000FFFFFFFFFFF07FFFFFFFFFFFFFE03FFF8B
:1033C000FFFFF0001FC01FFFFFE000001FC00FFF46
:1033D000FFE000001FC007FFFFE0000C1FC003FF5D
:1033E000FFE1FFF87FE1E3FFFFE1FFF0FFFFF3FF05
:1033F000FFE1FFF1FFFFF1FFFFE1FFF1FFFFF1FF51
:10340000FFE1FFE3FFFFF9FFFFE1FFE3FFFFF9FF4C
:10341000FFE1FFE3FFFFF9FFFFE1FFE3FFFFF9FF3C
:10342000FFE1FFE3FFFFF9FFFFE1FFE1FFFFF1FF36
:10343000FFE1FFE1FFFFE1FFFFE1FFE0FFFFC3FF6F
:10344000FFE1FFF03FFF83FFFFE1FFF00FFC03FF11
:10345000FFE1FFF8000007FFFFE1FFF800000FFFAA
:10346000FFE1FFFC00001FFFFFE1FFFF00003FFF47
:10347000FFE3FFFF8000FFFFFFFFFFFFF80FFFFFED
:10348000FFFFFFFFFFFFFFFFFFFFFFFFFFFFFFFF4C
:10349000FFFFFFFFFFFFFFFFFFFFFFFFFFFFFFFF3C
:1034A000FFFFFFFFFFFFFFFFFFFFFFF801FFFFFF31
:1034B000FFFFFE000007FFFFFFFFF0000001FFFF1E
:1034C000FFFFC00000007FFFFFFF000000001FFFA4
:1034D000FFFE000000000FFFFFFC0000000007FFE0
:1034E000FFF807F81FF807FFFFF03FF07FFF03FF2B
:1034F000FFF0FFE0FFFF83FFFFE1FFE1FFFFE1FFE0
:10350000FFE3FFE3FFFFF1FFFFC7FFC3FFFFF1FF93
:10351000FFC7FFC7FFFFF9FFFFCFFFC7FFFFF9FF9F
:10352000FFCFFFC7FFFFF9FFFFCFFFC7FFFFF9FF87
:10353000FFCFFFC3FFFFF1FFFFC7FFC1FFFFF1FF99
:10354000FFC01FC0FFFFE3FFFFC01FE07FFF83FF3F
:10355000FFE01FE00FF807FFFFF01FF000000FFF74
:10356000FFF01FF000000FFFFFFC3FFC00003FFFDB
:10357000FFFFFFFE00007FFFFFFFFFFFC001FFFF17
:10358000FFFFFFFFFFFFFFFFFFFFFFFFFFFFFFFF4B
:10359000FFFFFFFFFFFFFFFFFFFFFFFFFFFFFFFF3B
:1035A000FFFFFFFFFFFFFFFFFFFFFFFFFFFFFFFF2B
:1035B000FFFFF3FFFFFFFFFFFFFC03FFFFFFFFFF26
:1035C000FFE003FFFFFFFFFFFFE007FFFFFFFFFF3D
:1035D000FFE03FFFFFFFFFFFFFE07FFFFFFFFFFF79
:1035E000FFE0FFFFFFFFFFFFFFE1FFFFFFFFFFFF28
:1035F000FFE1FFFFFFE003FFFFE1FFFFFE0001FF30
:10360000FFE1FFFFF00001FFFFE1FFFFC00001FF4E
:10361000FFE1FFFF000001FFFFE1FFFC000001FFF1
:10362000FFE1FFE0000003FFFFE1FF800FFFFFFF6E
:10363000FFE1FE007FFFFFFFFFE1FC03FFFFFFFF55
:10364000FFE1F01FFFFFFFFFFFE1C07FFFFFFFFF74
:10365000FFE101FFFFFFFFFFFFE007FFFFFFFFFFAD
:10366000FFE01FFFFFFFFFFFFFE07FFFFFFFFFFF08
:10367000FFE1FFFFFFFFFFFFFFE3FFFFFFFFFFFF94
:10368000FFFFFFFFFFFFFFFFFFFFFFFFFFFFFFFF4A
:10369000FFFFFFFFFFFFFFFFFFFFFFFFFFFFFFFF3A
:1036A000FFFFFFFFFFFFFFFFFFFFFFFFFF01FFFF28
:1036B000FFFF80FFF8007FFFFFFE003FF0003FFFAD
:1036C000FFFC001FE0001FFFFFF8000FC0000FFF0E
:1036D000FFF0000780FE07FFFFE07C0307FF83FF8A
:1036E000FFE1FF010FFFC3FFFFE3FF803FFFE3FFA9
:1036F000FFC7FFC07FFFF1FFFFC7FFE07FFFF1FFC4
:10370000FFCFFFE07FFFF9FFFFCFFFF07FFFF9FF63
:10371000FFCFFFF83FFFF9FFFFCFFFF83FFFF9FFB3
:10372000FFCFFFF81FFFF9FFFFC7FFFC0FFFF1FFFF
:10373000FFC7FFF807FFF1FFFFC3FFF007FFE3FF3D
:10374000FFE1FFE101FFE3FFFFE0FF8300FF83FFF5
:10375000FFF00007803E07FFFFF00007C00007FFF3
:10376000FFF8000FE0000FFFFFFC003FF0001FFF1D
:10377000FFFF007FFC007FFFFFFFFFFFFF01FFFF58
:10378000FFFFFFFFFFFFFFFFFFFFFFFFFFFFFFFF49
:10379000FFFFFFFFFFFFFFFFFFFFFFFFFFFFFFFF39
:1037A000FFFFFFFFFFFFFFFFFFFFF003FFFFFFFF34
:1037B000FFFF80007FFFFFFFFFFE00003FFF1FFFB6
:1037C000FFFC00001FFC0FFFFFF800000FFC07FFCD
:1037D000FFF0000007FC03FFFFE03FF807FC03FFDA
:1037E000FFE0FFFF03FC01FFFFE3FFFF83FE01FF9C
:1037F000FFC7FFFFC3FFF1FFFFC7FFFFC3FFF9FFD5
:10380000FFCFFFFFE3FFF9FFFFCFFFFFE3FFF9FF6C
:10381000FFCFFFFFE3FFF1FFFFCFFFFFC3FFF1FF8C
:10382000FFCFFFFFC3FFE3FFFFC7FFFF87FFC3FF1C
:10383000FFC3FFFF07FF03FFFFE1FFFE0FFC07FFD2
:10384000FFE07FFC1FE00FFFFFF00FF038001FFFCD
:10385000FFF8000000003FFFFFFC000000007FFFBA
:10386000FFFE00000001FFFFFFFF00000007FFFF59
:10387000FFFFE000001FFFFFFFFFFC0001FFFFFF55
:10388000FFFFFFFFFFFFFFFFFFFFFFFFFFFFFFFF48
:10389000FFFFFFFFFFFFFFFFFFFFFFFFFFFFFFFF38
:1038A000FFFFFFFFFFFFFFFFFFFFFFFFFFFFFFFF28
:1038B000FFFFFFFFFFFFFFFFFFFFFFFFFFFFFFFF18
:1038C000FFFFFFFFFFFFFFFFFFFFFFFFFFFFFFFF08
:1038D000FFFFFFFFFFFFFFFFFFFFFFFFFFFFFFFFF8
:1038E000FFFFFFFFFFFFFFFFFFFFFFFFFFFFFFFFE8
:1038F000FFFFFFC3FFFF87FFFFFFFF81FFFF03FF06
:10390000FFFFFF00FFFE01FFFFFFFF00FFFE01FFC3
:10391000FFFFFF00FFFE01FFFFFFFF00FFFE01FFB3
:10392000FFFFFF00FFFE01FFFFFFFF81FFFF03FF1F
:10393000FFFFFFC3FFFF87FFFFFFFFFFFFFFFFFF4B
:10394000FFFFFFFFFFFFFFFFFFFFFFFFFFFFFFFF87
:10395000FFFFFFFFFFFFFFFFFFFFFFFFFFFFFFFF77
:10396000FFFFFFFFFFFFFFFFFFFFFFFFFFFFFFFF67
:10397000FFFFFFFFFFFFFFFFFFFFFFFFFFFFFFFF57
:103BB000FFFFFFFFFFFFFFFFFFFFCFFF0FFFFFFF35
:103BC000FFFFFFFFFFFFFFFFFFFFFFFFFFFFFFF113
:103BD000F3FF03FFFFFFFFFFFFFFFFFFFFFFFFFFFD
:103BE000FFFFFFFFFFC038FF00FFFFFFFFFFFFFFEA
:103BF000FFFFFFFFFFFFFFFFFFFFFF001CFF007F36
:103C0000FFFFFFFFFFFFFFFFFFFFFFFFFFFFFFFFC4
:103C1000FF000E7F003FFFFFFFFFFFFFFFFFFFFFE3
:103C2000FFFFFFFFFFFFFE00063F001FFFFFFFFF3C
:103C3000FFFFFFFFFFFFFFFFFFFFFFFFFC00073F4E
:103C4000001FFFFFFFFFFFFFFFFFFFFFFFFFFFFF63
:103C5000FFFFFC00031FC00FFFFFFFFFFFFFFFFF81
:103C6000FFFFFFFFFFFFFFFFFC01E31FE00FFFFF70
:103C7000FFFFFFFFFFFFFFFFFFFFFFFFFFFFF80357
:103C8000F19FF00FFFFFFFFFFFFFFFFFFFFFFFFFB1
:103C9000FFFFFFFFF807F19FF807FFFFFFFFFFFFA0
:103CA000FFFFFFFFFFFFFFFFFFFFF807F18FF807A0
:103CB000FFFFFFFFFFFFFFFFFFFFFFFFFFFFFFFF14
:103CC000F807F1CFF807FFFFFFFFFFFFFFFFFFFF40
:103CD000FFFFFFFFFFFFF807F8CFF807FFFFFFFF29
:103CE000FFFFFFFFFFFFFFFFFFFFFFFFF807F8CF1A
:103CF000F807FFFFFFFFFFFFFFFFFFFFFFFFFFFFD3
:103D0000FFFFF807F8E7F80FFFFFFFFFFFFFFFFFD8
:103D1000FFFFFFFFFFFFFFFFFC03F863F80FFFFF4C
:103D2000FFFFFFFFFFFFFFFFFFFFFFFFFFFFFC01A4
:103D3000FC31F00FFFFFFFFFFFFFFFFFFFFFFFFF63
:103D4000FFFFFFFFFC01FC3CE01FFFFFFFFFFFFF49
:103D5000FFFFFFFFFFFFFFFFFFFFFE01FC0FC01F84
:103D6000FFFFFFFFFFFFFFFFFFFFFFFFFFFFFFFF63
:103D7000FF01FE00003FFFFFFFFFFFFFFFFFFFFF10
:103D8000FFFFFFFFFFFFFF01FF00007FFFFFFFFFBF
:103D9000FFFFFFFFFFFFFFFFFFFFFFFFFFC1FF0070
:103DA00000FFFFFFFFFFFFFFFFFFFFFFFFFFFFFF22
:103DB000FFFFFFE1FF8001FFFFFFFFFFFFFFFFFFAE
:103DC000FFFFFFFFFFFFFFFFFFFDFFE007FFFFFF1C
:103DD000FFFFFFFFFFFFFFFFFFFFFFFFFFFFFFFFF3
:103DE000FFFE3FFFFFFFFFFFFFFFFFFFFFFFFFFFA4
:103DF000FFFFFFFFFFFFFFFFFFFFFFFFFFFFFFFFD3
:103E0000FFFFFFFFFFFFFFFFFFFFFFFFFFFFFFFFC2
:103E1000FFFFFFFFFFFFFFFFFFFFFFFFFFFFFFFFB2
:103E2000FFFFFFFFFFFFFFFFFFFFFFFFFFFFFFFFA2
:103E3000FFFFFFFFFFFFFE0000000007FFFFFFFF87
:103E4000FFFFFFFFFFFFFFFFFFFFFFFFFE00000080
:103E50000007FFFFFFFFFFFFFFFFFFFFFFFFFFFF69
:103E6000FFFFFE0000000007FFFFFFFFFFFFFFFF57
:103E7000FFFFFFFFFFFFFFFFFE0000000007FFFF47
:103E8000FFFFFFFFFFFFFFFFFFFFFFFFFFFFFE0042
:103E900000000007FFFFFFFFFFFFFFFFFFFFFFFF27
:103EA000FFFFFFFFFE0000000007FFFFFFFFFFFF17
:103EB000FFFFFFFFFFFFFFFFFFFFFE000000000707
:103EC000FFFFFFFFFFFFFFFFFFFFFFFFFFFFFFFF02
:103ED000FE01FC03F807FFFFFFFFFFFFFFFFFFFFEF
:103EE000FFFFFFFFFFFFFE01FC03F807FFFFFFFFDF
:103EF000FFFFFFFFFFFFFFFFFFFFFFFFFE01FC03D0
:103F0000F807FFFFFFFFFFFFFFFFFFFFFFFFFFFFC0
:103F1000FFFFFE01FC03F807FFFFEFFFFFFFF3FFCA
:103F2000FFFFF3FFFFFFFFFFFE01FC03F807FFFFAA
:103F3000E7FFFFFFF3FFFFFFF3FFFFFFFFFFFE01C0
:103F4000FC03F807FFFFC3FFFFFFE9FFFFFFE9FFE7
:103F5000FFFFFFFFFE01FC03F807FFFF9BFFFFFFD2
:103F6000CCFFFFFFCCFFFFFFFFFFFE01FC03F807C4
:103F7000FFFF18FFFFFF8C7FFFFF1C7FFFFFFFFF8E
:103F8000FE01FC03F807FFFE3C7FFFFE1E1FFFFE45
:103F90003E1FFFFFFFFFFE01FC03F807FFF8FE1FB7
:103FA000FFF8FFC7FFF1FFE3FFFFFFFFFE01FC0388
:103FB000F807FFE7FFC7FFF1FFE3FFF8FFC7FFFFC9
:103FC000FFFFFE01FC03F807FFF87E1FFFFE3E1F08
:103FD000FFFE1E1FFFFFFFFFFE01FFFFF807FFFEB2
:103FE0003C7FFFFF1C7FFFFF8C7FFFFFFFFFFE0179
:103FF000FFFFF807FFFF19FFFFFFCCFFFFFFCCFF1C
:10400000FFFFFFFFFE01FFFFF807FFFFDBFFFFFFE2
:10401000E9FFFFFFE9FFFFFFFFFFFFFFFFFFFFFFDC
:10402000FFFFC3FFFFFFF3FFFFFFF3FFFFFFFFFFF4
:10403000FFFFFFFFFFFFFFFFE7FFFFFFF3FFFFFFB4
:10404000F3FFFFFFFFFFFFFFFFFFFFFFFFFFFFFF8C
:10405000FFFFFFFFFFFFFFFFFFFFFFFFFFFFFFFF70
:10406000FFFFFFFFFFFFFFFFFFFFFFFFFFFFFFFF60
:10407000FFFFFE0000000007FFFFFFFFFFFFFFFF45
:10408000FFFFFFFFFFFFFFFFFE0000000007FFFF35
:10409000FFFFFFFFFFFFFFFFFFFFFFFFFFFFFE0030
:1040A00000000007FFFFFFF7FFFFFFFDFFFE7FF9A6
:1040B000FFFFFFFFFE0000000007FFF9FFE3FFFB2B
:1040C000FFF9FFF9FFE1FFFFFFFFFE00000000071F
:1040D000FFF3FFC3FFF80001FFF9FFD1FFFFFFFF70
:1040E000FE0000000007FFF3FFA3FFF80001FFF14F
:1040F000FFB1FFFFFFFFFE0000000007FFE3FE63CC
:10410000FFFBFBF9FFF1FE71FFFFFFFFFE01FC0368
:10411000F807FFF3F9E3FFFBFBF9FFF8F9F1FFFF05
:10412000FFFFFE01FC03F807FFF003E3FFFBFBF9D1
:10413000FFFC03F1FFFFFFFFFE01FC03F807FFF8A0
:104140000FE3FFFBF3FBFFFE1FF3FFFFFFFFFE018B
:10415000FC03F807FFFFFFC7FFF9F1F3FFFFFFFFC5
:10416000FFFFFFFFFE01FC03F807FFFFFFFFFFFC5F
:104170000063FFFFFFFFFFFFFFFFFE01FC03F807E7
:10418000FFFFFFFFFFFE0C07FFFFFC7FFFFFFFFFAE
:10419000FE01FC03F807FFFFFFFFFFFFFE0FFFFF1D
:1041A000C00FFFFFFFFFFE01FC03F807FFFFFFE367
:1041B000FFFFFFFFFFFF0003FFFFFFFFFE01FC0308
:1041C000F807FFFFFFE7FFFFFFFFFFFE37F9FFFFE5
:1041D000FFFFFE01FC03F807FFFFFFFFFFFBFFFDF2
:1041E000FFFCE7FDFFFFFFFFFE01FC03F807FFFFF9
:1041F000FFFFFFF00001FFF9E7FDFFFFFFFFFE01FA
:10420000FC03F807FFFCFFFFFFF00001FFFBE3FBEF
:10421000FFFFFFFFFE01FFFFF807FFF1FFFFFFFFBA
:10422000FFFDFFF7F007FFFFFFFFFE01FFFFF807AD
:10423000FFF3FFFFFFFFFFFFFFF7FC0FFFFFFFFF95
:10424000FE01FFFFF807FFF3FFE3FFFFFFC7FFFFDC
:10425000FFFFFFFFFFFFFFFFFFFFFFFFFFF3FE0F6B
:10426000FFFFE183FFFFFE3FFFFFFFFFFFFFFFFFB9
:10427000FFFFFFF3E07FFFFFCF31FFFFF93FFFFFBD
:10428000FFFFFFFFFFFFFFFFFFF207FFFFFFDE79EA
:10429000FFFFE73FFFFFFFFFFFFFFFFFFFFFFFF015
:1042A0007FFFFFFFDEFBFFFF8F3FFFFFFFFFFE00F3
:1042B00000000007FFF7FFFFFFFFC003FFFF3F3FC6
:1042C000FFFFFFFFFE0000000007FFFFFFFFFFFFF3
:1042D000E001FFFCFF3FFFFFFFFFFE0000000007C3
:1042E000FFFFDFFBFFFFFFFBFFF00001FFFFFFFF12
:1042F000FE0000000007FFE7C003FFFFFFF7FFFF1E
:10430000FF3FFFFFFFFFFE0000000007FFE3800309
:10431000FFFFFE3FFFFFFF3FFFFFFFFFFE0000002C
:104320000007FFFFFFF3FFFFF007FFFFFFFFFFFFA7
:10433000FFFFFE000080000FFFFFFFFFFFFFE7C34E
:10434000FFFFFFFFFFFFFFFFFF8000FFFFFFFFFFFB
:10435000DFFFFFFFCFF1FFFFFFFFFFFFFFFFFFE0EA
:10436000001FFFFFFFFFDFF3FFFFDFF9FFFFFFFF8E
:10437000FFFFFFFFFFF8000FFFFFFFFF8003FFFFBE
:10438000CFF9FFFFFFFFFFFFFFFFFFFE0001FFFF71
:10439000FFFFE333FFFFE3F3FFFFFFFFFFFFFFFF3D
:1043A000FFFF8000FFFFFFFFDFFBFFFFF3E7FFFFE3
:1043B000FFFFFFFFFFFFFFFFE0003FFFFFFF9FFF4B
:1043C000FFFFFFFFFFFFEFFFFFFFFFFFFFFFF80013
:1043D0000FFFFFFF9FFBFFFBFFFFFFFC47FFFFFF00
:1043E000FFFFFFFFFE0003FFFFFF8003FFF813A1A5
:1043F000FFFE4FFFFFFFFFFFFFFFFF8000FFFFFFFC
:10440000E003FFF00001FFFB13FFFFFFFFFFFFFFD3
:10441000FFF0003FFFFFFFFBFFFFFE79FFF001FF12
:10442000FFFFFFFFFFFFFFF8000FFFFFFFFFFFFF92
:10443000FC3FFFFF5FFFFFFFFFFFFE0000000007E4
:10444000FFFFF83FFFFFF90FFFFC4FFFFFFFFFFFEC
:10445000FE0000000007FFFFE00FFFFFC7C3FFFCE7
:10446000EFFFFFFFFFFFFE0000000007FFFFCFC7C9
:10447000FFFFCFE1FFFFFFFFFFFFFFFFFE00000098
:104480000007FFFFBFE3FFFFDFF9FFFFFFFFFFFFB5
:10449000FFFFFE0000000007FFFFBFF3FFFFFFFD6F
:1044A000FFFFFFFFFFFFFFFFFE0000000007FFFF11
:1044B0009FF3FFFFFFFFFFFFFFFFFFFFFFFFFE0078
:1044C0000000000FFFFFC7E7FFFFFF07FFFFFFFF31
:1044D000FFFFFFFFFFFFFFFFFFFFFFFFE79FFFFF64
:1044E000FC03FFFFFFFFFFFFFFFFFFFFFFFFFFFFDB
:1044F000FFFFFFFFFFFFF9F1FFFFFFFFFFFFFFFFE0
:10450000FFFFFFFFFFFFFFF7FFFBFFFC1BF9FFFFB4
:10451000FFFFFFFFFFFFFFFFFC1FFFFFFFE00003A8
:10452000FFF803F9FFFFFFFFFFFFFFFFFFFF800022
:10453000FFFFFFE00003FFFBE0FBFFFDFFFFFFFFCE
:10454000FFFFFFFE00001FFFFFFFEFFBFFF7E83755
:10455000FFF9FFF9FFFFFFFFFFF8000007FFFFFF74
:10456000DFFFFFF39E07FFF80001FFFFFFFFFFE003
:10457000000003FFFFFF9FFFFFF83F87FFF80001E8
:10458000FFFFFFFFFFC0000000FFFFFF8FF3FFFFF3
:10459000FF23FFFFFFFDFFFFFFFFFF800000007F05
:1045A000FFFFC003FFFFE0F1FFFFFFFFFFFFFFFF83
:1045B000FF0003F0003FFFFFFEC3FFFFE3F9FFFF33
:1045C000FFFFFFFFFFFFFE001FFE003FFFFFFFFF9B
:1045D000FFFFEFFBFFFFFFFFFFFFFFFFFE007FFF7F
:1045E000001FFFFFFFFFFFFFEFF7FFFFFFFFFFFFD2
:1045F000FFFFFC00FFFFC01FFFFFFFFFFFFFFFFFEC
:10460000FFFCFFFFFFFFFFFFFC01FFFFC00FFFFFED
:10461000FFFFFFFFFFFFFFF9FFFFFFFFFFFFF801B5
:10462000FFFFE00FFFFFFFFFFFFBFFFFFFF9FFFFB3
:10463000FFFFFFFFF803F807F00FFFFFFFFFFFF892
:10464000FFFFFFF9FFE1FFFFFFFFF803F807F007A7
:10465000FFFFFFFFFFF80FFFFFF9FE0FFFFFFFFF58
:10466000F803F807F007FFF7FFFBFFFB00FFFFF978
:10467000E07FFFFFFFFFF803F807F007FFF00003FC
:10468000FFFFF01FFFF807FFFFFFFFFFF803F8072A
:10469000F007FFF00003FFFFFE01FFF87FFFFFFFC1
:1046A000FFFFF803F807E007FFF7F7F3FFFBFF87CB
:1046B000FFFFFFFFFFFFFFFFFC01F807E007FFF729
:1046C000F7F3FFF9F87FFFFFFFFFFFFFFFFFFC019C
:1046D000F807C007FFF7F7F3FFF807FFFFFFE01F3A
:1046E000FFFFFFFFFC00F8078007FFF7F7F3FFF875
:1046F00003FFFFFF8007FFFFFFFFFE0078000007BA
:10470000FFF7E7F3FFFFC07FFFFF07F3FFFFFFFFA8
:10471000FF00F8000007FFF7C1F3FFFFF807FFFCF9
:1047200077F9FFFFFFFFFF01F8000007FFF1FFE34C
:10473000FFFFFF81FFF9E7FDFFFFFFFFFF81F800AB
:104740000007FFFFFF9FFFFFFE1FFFFBE7F9FFFFD3
:10475000FFFFFFE3F8000007FFFFFFFFFFFFE1FFA0
:10476000FFF3F0F3FFFFFFFFFFF7F8000007FFFF85
:10477000FEFFFFFA0FFFFFF7F807FFFFFFFFFFFF46
:10478000FFFFFFFFFFFFFC7FFFF8FFFFFFFFFE3F84
:10479000FFFFFFFFFFFFFFFFFFFFFFFFFC7FFFFBB0
:1047A000FFFFFFFFFFFFFFFFFFFFFFFFFFFFFFFF19
:1047B000FFFFFC7FFFFFFFFFFFFFFFFFFFFFFFFF8C
:1047C000FFFFFFFFFFFFFFFFFC7FFFFBFFFFFFFF80
:1047D000FFFFFFFFFFFFFE0000000007FFFFFEFFDF
:1047E000FFF00001FFFFFFFFFFFFFFFFFE000000E3
:1047F0000007FFFFFFFFFFF00001FFFFFFFFFFFFCC
:10480000FFFFFE0000000007FFF7FFFBFFFFF7FDC3
:10481000FFFFFFFFFFFFFFFFFE0000000007FFF0AC
:104820000003FFFFEFFFFFFFFFFDFFFFFFFFFE00A5
:1048300007FE0007FFF00003FFFFCFFFFFFBFFF9BC
:10484000FFFFFFFFFE001FFF8007FFF7F3F3FFFFEF
:10485000C001FFF80001FFFFFFFFFE003E07C00799
:10486000FFF7FBFBFFFFE001FFF80001FFFFFFFF89
:10487000FE007801FFFFFFF7FBFFFFFFFFF9FFFBE3
:10488000FFFDFFFFFFFFFE00F1F0FFFFFFF3F3FF6F
:10489000FFFFFFFFFFFBFDFFFFFFFFFFFE00E3FC4D
:1048A0007FFFFFF007FFFFFFFFFFFFF9F9FFFFFFAB
:1048B000FFFFFE01C7FE7FFFFFF807FFFFFFEFFFCF
:1048C000FFF8F3FFFFFFFFFFFE01C7FE3FFFFFFE04
:1048D0001FFFFFF1C001FFFC03FFFFFFFFFFFE0111
:1048E000C7FE3FFFFFFFFFFFFFF3C001FFFE07FF13
:1048F000FFFFFFFFFE01C7FE7FFFFFFFFFFFFFFF80
:10490000FFFDFFFFFFFFFFFFFFFFFE00E3FC3FFF98
:10491000FFFFE707FFFFFFFFFFFFFFFFFFFFFFFFB7
:10492000FE00F0F03FFFFFFFC623FFFFDFFFFFFFAA
:10493000EFFDFFFFFFFFFE0078001FFFFFFFBEF34C
:10494000FFFF8007FFF1E001FFFFFFFFFF003E00D8
:104950000FFFFFFFBDF7FFFE0001FFF3C001FFFFE8
:10496000FFFFFF001FF807FFFFFF9DEFFFFFDFF9CD
:10497000FFFFFFFDFFFFFFFFFF8007FE03FFFFFFBD
:10498000C003FFFFDFFBFFFFFFFFFFFFFFFFFFC0D5
:10499000001F01FFFFFFF003FFFFFFFFFFFFDFFD31
:1049A000FFFFFFFFFFE0000780FFFFFFFFF7FFFFB4
:1049B000F80FFFFFCFF1FFFFFFFFFFF80003C07FFD
:1049C000FFFFDFFFFFFFE003FFFFC3EDFFFFFFFF80
:1049D000FFFE000FF00FFFFFCFFFDFFFEDE3FFFF54
:1049E000C09FFFFFFFFFFFFFE0FFF801FFFF800018
:1049F0001FFFDDF1FFFFFC3FFFFFFFFFFFFFFFFF9A
:104A0000FC00FFFFE7E7DFFFDDF9FFFFF90FFFFF26
:104A1000FFFFFFFFFFFFFC00FFFFCFFBFFFFC5F322
:104A2000FFFFC3C1FFFFFFFFFFFFFFFFFC00FFFF12
:104A30009FFBFFFFE1F3FFFFCFF1FFFFFFFFFFFF52
:104A4000FFFFFC00FFFF8FF3FFFFF9CFFFFFFFF930
:104A5000FFFFFFFFFE0000007801FFFFC7E7FFFF39
:104A6000FFFFFFFFFFFFFFFFFFFFFE000001F0035E
:104A7000FFFFC00FFFFFFFFFFFFFFF3FFFFFFFFF35
:104A8000FE000003E0FFFFFFF83FFFFFFFFFFFFF17
:104A9000F007FFFFFFFFFE00000F83FFFFFFFFFF98
:104AA000FFFFFFFFFFFFE5C3FFFFFFFFFE00001F4B
:104AB0000FCFFFFFF01FFFFFFFFFFFFFDDF1FFFF45
:104AC000FFFFFE0003FC1F07FFFFC007FFFFFFFF04
:104AD000FFFFDDF1FFFFFFFFFE0007F03C07FFFFD8
:104AE000DBC7FFFFFFFFFFFFCDF9FFFFFFFFFE0169
:104AF000FF00F807FFFFBBE3FFFFFFFFFFFFE1F34E
:104B0000FFFFFFFFFE01FC01F807FFFF9BF3FFFF24
:104B1000FFFFFFFFF1E7FFFFFFFFFE01FC03F807C8
:104B2000FFFF8BE7FFFFFFFFFFFFFFFFFFFFFFFF21
:104B3000FE01FC03F807FFFFC3EFFFFFFFFFFFFFCE
:104B4000FFFFFFFFFFFFFE01FC03F807FFFFF39FDE
:104B5000FFFFFFFFFFFBFFFDFFFFFFFFFE01FC0369
:104B6000F807FFFFFFFFFFFFFFFFFFF00001FFFF60
:104B7000FFFFFE01FC03F807FFFFDFFBFFFFFFFF66
:104B8000FFF00001FFFFFFFFFE01FC03F807FFFF3E
:104B90008003FFFFFFFFFFFFFFFDFFFFFFFFFE01A1
:104BA000FC0FF807FFFF8003FFFFFFFFFFFFFFFF82
:104BB000FFFFFFFFFE01FC7FF007FFFFDFFBFFFFB2
:104BC000FFFFFFFFFFFFFFFFFFFFFE01FDFF80076D
:104BD000FFFF9FFFFFFFFFFFFFFFE0F3FFFFFFFF70
:104BE000FE01FFFE0007FFFF8FFFFFFFFFFFFFFF3C
:104BF000DC79FFFFFFFFFE01FFF00007FFFFFFFF73
:104C0000FFFFFFFFFFFFDE3DFFFFFFFFFE01FF8015
:104C10000007FFFFFFFFFFFFFFFFFFFFDF3DFFFF7D
:104C2000FFFFFE0FFE00001FFFFFFFFFFFFFFFFF64
:104C3000FFFFC703FFFFFFFFFE3FF000007FFFFF06
:104C4000FFFFFFFFFFFFFFFFFF87FFFFFFFFFFFFEC
:104C5000C00003FFFFFFFFFFFFFFFFFFFFFFFFFF9E
:104C6000FFFFFFFFFFFE00000FFFFFFFFFFFFFFF43
:104C7000FFFFFFFFFFFFFFFFFFFFFFF800007FFFC9
:104C8000FFFFFFFFFFFFFFFFFFFFFFFFFFFFFFFF34
:104C9000FFC00003FFFFFFFFFFFFFFFFFFFFFFFF5E
:104CA000FFFFFFFFFFFFFE00001FFFFFFFFFFFFFF3
:104CB000FFFFFFFFFFFFFFFFFFFFFFFFFE00007F83
:104CC000FFFFFFFFFFFFFFFFFFFFFFFFFFFFFFFFF4
:104CD000FFFFFE0003FFFFFFFFFFFFFFFFFFFFFFE0
:104CE000FFFFFFFFFFFFFFFFFE0007FFFFFFFFFFCC
:104CF000FFFFFFFFFFFFFFFFFFFFFFFFFFFFFE00C4
:104D000000FFFFFFFFFFFFFFFFFFFFFFFFFFFFFFB2
:104D1000FFFFFFFFFE00001FFFFFFFFFFFFFFFFF82
:104D2000FFFFFFFFFFFFFFFFFFFFFF000007FFFF89
:104D3000FFFFFFFFFFFFFFFFFFFFFFFFFFFFFFFF83
:104D4000FFE00000FFFFFFFFFFFFFFFFFFFFFFFF90
:104D5000FFFFFFFFFFFFFFFC00001FFFFFFFFFFF44
:104D6000FFFFFFFFFFFFFFFFFFFFFFFFFFFF8000D1
:104D700003FFFFFFFFFFFFFFFFFFFFFFFFFFFFFF3F
:104D8000FFFFFFFFE00000FFFFFFFFFFFFFFFFFF50
:104D9000FFFFFFFFFFFFFFFFFE3FFC00001FFFFFC5
:104DA000FFFFFFFFFFFFFFFFFFFFFFFFFFFFFE0F04
:104DB000FF800007FFFFFFFFFFFFFFFFFFFFFFFF79
:104DC000FFFFFFFFFE01FFE00007FFFFFFFFFFFF08
:104DD000FFFFFFFFFFFFFFFFFFFFFE01FFFC0007DC
:104DE000FFFFFFFFFFFFFFFFFFFFFFFFFFFFFFFFD3
:104DF000FE01FFFF8007FFFFFFFFFFFFFFFFFFFF39
:104E0000FFFFFFFFFFFFFE01FFFFE007FFFFFFFFC8
:104E1000FFFFFFFFFFFFFFFFFFFFFFFFFE01FFFFA1
:104E2000FC07FFFFFFFFFFFFFFFFFFFFFFFFFFFF8D
:104E3000FFFFFE01FFFFFF87FFFFFFFFFFFFFFFFF9
:104E4000FFFFFFFFFFFFFFFFFE01FFFFFFE7FFFF89
:104E5000FFFFFFFFFFFFFFFFFFFFFFFFFFFFFE0161
:104E6000FFFFFFFFFFFFFFFFFFFFFFFFFFFFFFFF52
:104E7000FFFFFFFFFE01FFFFFFFFFFFFFFFFFFFF41
:104E8000FFFFFFFFFFFFFFFFFFFFFE000000000F1F
:104E9000FFFFFFFFFFFFFFFFFFFFFFFFFFFFFFFF22
:104EA000FE0000000007FFFFFFFFFFFFFFFFFFFF07
:104EB000FFFFFFFFFFFFFE0000000007FFFFFFFFF7
:104EC000FFFFFFFFFFFFFFFFFFFFFFFFFE000000F0
:104ED0000007FFFFFFFFFFFFFFFFFFFFFFFFFFFFD9
:104EE000FFFFFE0000000007FFFFFFFFFFFFFFFFC7
:104EF000FFFFFFFFFFFFFFFFFE0000000007FFFFB7
:104F0000FFFFFFFFFFFFFFFFFFFFFFFFFFFFFE00B1
:104F100000000007FFFFFFFFFFFFFFFFFFFFFFFF96
:104F2000FFFFFFFFFE01FFFFFFFFFFFFFFFFFFFF90
:104F3000FFFFFFFFFFFFFFFFFFFFFE01FFFFFFFF80
:104F4000FFFFFFFFFFFFFFFFFFFFFFFFFFFFFFFF71
:104F5000FE01FFFFFFFFFFFFFFFFFFFFFFFFFFFF60
:104F6000FFFFFFFFFFFFFE01FFFFFFFFFFFFFFFF50
:104F7000FFFFFFFFFFFFFFFFFFFFFFFFFE01FFFF40
:104F8000FFFFFFFFFFFFFFFFFFFFFFFFFFFFFFFF31
:104F9000FFFFFE01FFFFFFFFFFFFFFFFFFFFFFFF20
:104FA000FFFFFFFFFFFFFFFFFE01FFFFFFFFFFFF10
:104FB000FFFFFFFFFFFFFFFFFFFFFFFFFFFFFE0100
:104FC000FFFFFFFFFFFFFFFFFFFFFFFFFFFFFFFFF1
:104FD000FFFFFFFFFE01FFFFFFFFFFFFFFFFFFFFE0
:104FE000FFFFFFFFFFFFFFFFFFFFFE01FFFFFFFFD0
:104FF000FFFFFFFFFFFFFFFFFFFFFFFFFFFFFFFFC1
:10500000FFFFFFFFFFFFFFFFFFFFFFFFFFFFFFFFB0
:10501000FFFFFFFFFFFFFFFFFFFFFFFFFFFFFFFFA0
:10502000FFFFFFFFFFFFFFFFFFFFFFFFFFFFFFFF90
:10503000FFFFFFFFFFFFFFFFFFFFFFFFFFFFFFFF80
:10504000FFFFFFFFFFFFFFFFFFFFFFFFFFFFFFFF70
:10505000FFFFFFFFFFFFFFFFFFFFFFFFFFFFFFFF60
:10506000FFFFFFFFFFFFFFFFFFFFFFFFFFFFFFFF50
:10507000FFFFFFFFFFFFFFFFFFFFFFFFFFFFFFFF40
:10508000FFFFFFFFFFFFFFFFFFFFFFFFFFFFFFFF30
:10509000FFFFFFFFFFFFFFFFFFFFFFFFFFFFFFFF20
:1050A000FFFFFFFFFFFFFFFFFFFFFFFFFFFFFFFF10
:1050B000FFFFFFFFFFFFFFFFFFFFFFFFFFFFFFFF00
:1050C000FFFFFFFFFFFFFFFFFFFFFFFFFFFFFFFFF0
:1050D000FFFFFFFFFFFFFFFFFFFFFFFFFFFFFFFFE0
:1050E000FFFFFFFFFFFFFFFFFFFFFFFFFFFFFFFFD0
:1050F000FFFFFFFFFFFFFFFFFFFFFFFFFFFFFFFFC0
:10510000FFFFFFFFFFFFFFFFFFFFFFFFFFFFFFFFAF
:10511000FFFFFFFFFFFFFFFFFFFFFFFFFFFFFFFF9F
:10512000FFFFFFFFFFFFFFFFFFFFFFFFFFFFFFFF8F
:10513000FFFFFFFFFFFFFFFFFFFFFFFFFFFFFFFF7F
:10514000FFFFFFFFFFFFFFFF000000000000FFFF69
:10515000FFFFFFFFFFFFFFFFFFFFFFFFFFFFFFFF5F
:10516000FFFFFFFFFFFFFFFFFFFFFFFFFFFFFFFF4F
:10517000FFFFFFFFFFFFFFFFFFFFFFFFFFFFFFFF3F
:10518000FFFFFFFFFFFFFFFFFFFFFFFFFFFFFFFF2F
:1053F000FFFFFFFFFFFFFFFFFFFFFFFFF81FC01FC3
:10540000FFFFFFFFFFFFFFFFFFFFFFFFFFFFFFFFAC
:10541000FFFFE007F83FFFFFFFFFF3FFFFFFFFFF86
:10542000FFFFFFFFFFFFFFFFC003FE3FFFFFFFFF88
:10543000F3FFFFFFFFFFFFFFFFFFFFFFFFFF800105
:10544000FF3FFFFFFFFFE9FFFFFFFFFFFFFFFFFF42
:10545000FFFFFFFF9F01FF9FFFFFFFFFCCFFFFFF4D
:10546000FFFFFFFFFFFFFFFFFFFFBF80FF9FFFFF6B
:10547000FFFF8C7FFFFFFFFFFFFFFFFFFFFFFFFF2F
:105480003F807FDFFFFFFFFE1E1FFFFFFFFFFFFFCD
:10549000FFFFFFFFFFFF3FC07FCFFFFFFFF87F87CA
:1054A000FFFFFFFFFFFFFFFFFFFFFFFFBFE03FDF4B
:1054B000FFFFFFF1FFE3FFFFFFFFFFFFFFFFFFFF26
:1054C000FFFF9FE01FDFFFFFFFFC3F1FFFFFFFFF0E
:1054D000FFFFFFFFFFFFFFFFCFF00F9FFFFFFFFF6B
:1054E0001C3FFFFFFFFFFFFFFFFFFFFFFFFFC7F0B6
:1054F000021FFFFFFFFF8CFFFFFFFFFFFFFFFFFF0C
:10550000FFFFFFFFC3F8003FFFFFFFFFEDFFFFFFBF
:10551000FFFFFFFFFFFFFFFFFFFF807C007FFFFF1C
:10552000FFFFE1FFFFFFFFFFFFFFFFFFFFFFFFFFA9
:10553000FFFF01FFFFFFFFFFF3FFFFFFFFFFFFFF85
:10554000FFFFFFFFFFFFFFFFFFFFFFFFFFFFF7FF73
:10555000FFFFFFFFFFFFFFFFFFFFFFFFFFFFFFFF5B
:10556000FFFFFFFFFFFFFFFFFFFFFFFFFFFFFFFF4B
:10557000FFFFFFFFFFFFFFFFFFFFFFFFFFFFFFFF3B
:10558000FFFFFFFFFFFFFFFFBFFFFFDFFFFFFFFF8B
:10559000FFFFFFFFFFFFFFFFFFFFFFFFFFFFBFFF5B
:1055A000FFDFFFFFFFFFFFFFFFFFFFFFFFFFFFFF2B
:1055B000FFFFFFFF8200001FFFFFFFFFC03FFFFF55
:1055C000FFFFFFFFFFFFFFFFFFFF8000001FFFFF48
:1055D000FFFF000FFFFFFFFFFFFFFFFFFFFFFFFFCA
:1055E0008000001FFFFFFFFE0007FFFFFFFFFFFF20
:1055F000FFFFFFFFFFFF8000001FFFFFFFFCFFE337
:10560000FFFFFFFFFFFFFFFFFFFFFFFF8000001F07
:10561000FFFFFFF9FFF3FFFFFFFFFFFFFFFFFFFFAC
:10562000FFFF8000001FFFFFFFFBFFF9FFFFFFFFF1
:10563000FFFFFFFFFFFFFFFF9FF9FF9FFFFFFFFB44
:10564000FFF9FFFFFFFFFFFFFFFFFFFFFFFF9FF9D6
:10565000FF9FFFFFFFFBFFF9FFFFFFFFFFFFFFFFC4
:10566000FFFFFFFF9FF1FF9FFFFFFFFBFFF9FFFF22
:10567000FFFFFFFFFFFFFFFFFFFF9FE07F9FFFFF99
:10568000FFFBFFFBFFFFFFFFFFFFFFFFFFFFFFFF32
:105690009F000F9FFFFFFFFDFFF7FFFFFFFFFFFFD3
:1056A000FFFFFFFFFFFF9FFFFF9FFFFFFFF8FFE7E9
:1056B000FFFFFFCFFFFFFFFFFFFFFFFF8FFFFF9FFA
:1056C000FFFFFFFC3FDFFFFFFFCFFFFFFFFFFFFFFD
:1056D000FFFF8FFFFF1FFFFFFFFFFFFFFFFFFF87A2
:1056E000FFFFFFFFFFFFFFFF83FFFE1FFFFFFFFF27
:1056F000FC3FFFFFFF33FFFFFFFFFFFFFFFF80FFC8
:10570000FC1FFFFFFFFFF007FFFFFE31FFFFFFFF62
:10571000FFFFFFFFFFFFE03FFFFFFFFFE383FFFF10
:10572000FC78FFFFFFFFFFFFFFFFFFFFFFFFFFFF13
:10573000FFFFCFF3FFFFF0FC3FFFFFFFFFFFFFFF87
:10574000FFFFFFFFFFFFFFFFDFF9FFFFC7FF8FFF37
:10575000FFFFFFFFFFFFBFFFFFDFFFFFFFFFDFF9DF
:10576000FFFFF1FE3FFFFFFFFFFFFFFFBFFFFFDF78
:10577000FFFFFFFFCFFBFFFFFC78FFFFFFFFFFFFF7
:10578000FFFFBFFFFFDFFFFFFFFFE1E3FFFFFE3192
:10579000FFFFFFFFFFFFFFFF8000001FFFFFFFFF76
:1057A000F007FFFFFF33FFFFFFFFFFFFFFFF80005A
:1057B000001FFFFFFFFFFC1FFFFFFF87FFFFFFFF33
:1057C000FFFFFFFF8000001FFFFFFFFFFFFFFFFF46
:1057D000FFCFFFFFFFFFFFFFFFFF8000001FFFFF66
:1057E000FFFFFFFFFFFFFFCFFFFFFFFFFFFFFFFFF9
:1057F0008000001FFFFFFFF9FFFBFFFFFFFFFFFF20
:10580000FFFFFFFFFFFF8000001FFFFFFFF000030F
:10581000FFFFFFFFFFFFFFFFFFFFFFFF9FF9FF9F5E
:10582000FFFFFFF80003FFFFFFFFFFFFFFFFFFFF8A
:10583000FFFF9FF9FF9FFFFFFFFFFFFFFFFFFFFF3E
:10584000FFFFFFFFFFFFFFFF9FF1FF9FFFFFFFFF36
:10585000FFFFFFFFFFFFFFFFFFFFFFFFFFFF9FE0D7
:105860007F9FFFFFFFFFFE3FFFFFEFFFEFFFFFFF09
:10587000FFFFFFFF9E000F9FFFFFFFFFF007FFFFEF
:10588000E0000FFFFFFFFFFFFFFF9FFFFF9FFFFFF6
:10589000FFFFE003FFFFE0000FFFFFFFFFFFFFFF41
:1058A0008FFFFF9FFFFFFFFFCFF3FFFFE7FFEFFF3C
:1058B000FFFFFFFFFFFF87FFFF1FFFFFFFFFDFF976
:1058C000FFFFEFFFFFFFFFFFFFFFFFFF81FFFE1F57
:1058D000FFFFFFFFDFF9FFFFFFFFFFFFFFFFFFFFFE
:1058E000FFFF80FFFC1FFFFFFFFFCFFBFFFFFFFF5E
:1058F000FFFFFFFFFFFFFFFFFFFFE03FFFFFFFFF97
:10590000E1E3FFFFFFBFEFFFFFFFFFFFFFFFFFFF31
:10591000FFFFFFFFFFFFF007FFFFFF000FFFFFFF8D
:10592000FFFFFFFFFFFFFFFFFFFFFFFFFC1FFFFF6A
:10593000FF800FFFFFFFFFFFFFFFBFFFFFDFFFFF46
:10594000FFFFFFFFFFFFFF9FF7FFFFFFFFFFFFFFCF
:10595000BFFFFFDFFFFFFFFFEFFFFFFFFFBFFFFF07
:10596000FFFFFFFFFFFF9FFFFF9FFFFFFFFFE00322
:10597000FFFFFF3FFFFFFFFFFFFFFFFF8000001F54
:10598000FFFFFFFFC003FFFFFF0FEFFFFFFFFFFF62
:10599000FFFF8000001FFFFFFFFFF7FBFFFFFF80FF
:1059A0000FFFFFFFFFFFFFFF80FFFF9FFFFFFFFFD6
:1059B000EFFFFFFFFFF00FFFFFFFFFFFFFFF807F05
:1059C000FFDFFFFFFFFFC7FFFFFFFFFFFFFFFFFF3F
:1059D000FFFFFFFF801FFFDFFFFFFFFFE7FFFFFF6E
:1059E000FF3FFFFFFFFFFFFFFFFFC00FFFFFFFFFB6
:1059F000FFFFFFFFFFFFFE000FFFFFFFFFFFFFFFA7
:105A0000E007FFFFFFFFFFFFFFFFFFFFF8000FFFB3
:105A1000FFFFFFFFFFFFF801FFFFFFFFFFFFC7F3DF
:105A2000FFFFFF3FE7FFFFFFFFFFFFFFFC00FFFF60
:105A3000FFFFFFFFC7F1FFFFFF3FCFFFFFFFFFFFAC
:105A4000FFFFFF003FFFFFFFFFFFFFFFFFFFFFFF25
:105A5000FFFFFFFFFFFFFFFFFF801FFFFFFFFFFFB5
:105A6000FFFFFFFFFFF07FFFFFFFFFFFFFFFFFE0F4
:105A700007FFFFFFFFFFFFFFFFFFFFC01FFFFFFF4D
:105A8000FFFFFFFFBFF003FFFFFFFFFBFFFFFFFF75
:105A9000FFB70FFFFFFFFFFFFFFFBFFC00FFFFFF90
:105AA000FFF9FFFBFFFFFF77C7FFFFFFFFFFFFFFD0
:105AB0009FFE007FFFFFFFF80003FFFFFF77C7FF98
:105AC000FFFFFFFFFFFF8000001FFFFFFFF8000345
:105AD000FFFFFF37C7FFFFFFFFFFFFFF8000001F33
:105AE000FFFFFFFBFBFBFFFFFF87CFFFFFFFFFFF7A
:105AF000FFFF9FFFFFFFFFFFFFFBFBFBFFFFFFC75A
:105B00009FFFFFFFFFFFFFFFBFFFFFFFFFFFFFFB49
:105B1000FBFBFFFFFFE7FFFFFFFFFFFFFFFFBFFFF5
:105B2000FFFFFFFFFFFBFBFBFFFFFFFFFFFFFFFF91
:105B3000FFFFFFFFFFFFFFFFFFFFFFF9F1FBFFFF8D
:105B4000FFBFEFFFFFFFFFFFFFFFFFFFFFFFFFFFB5
:105B5000FFFC40F3FFFFFF000FFFFFFFFFFFFFFF12
:105B6000FFC01FFFFFFFFFFC0403FFFFFF800FFFCD
:105B7000FFFFFFFFFFFFFE0007FFFFFFFFFF0C0718
:105B8000FFFFFFBFF7FFFFFFFFFFFFFFFC0001FF6D
:105B9000FFFFFFFFFF1FFFFFFF3FFFFFFFFFFFFFB5
:105BA000FFFFF00000FFFFFFFFFFFFFFFFFFFF1FF2
:105BB000FFFFFFFFFFFFFFFFE000007FFFFFFFFF92
:105BC000FFFFFFFFFFFFFFFFFFFFFFFFFFFFE00003
:105BD000003FFFFFFFFBFFFBFFFFFFFFFFFFFFFF9C
:105BE000FFFFFFFFC0FFF03FFFFFFFF00003FFFFDD
:105BF000FF3FFFFFFFFFFFFFFFFF83FFFE1FFFFFD2
:105C0000FFF00003FFFFFC000FFFFFFFFFFFFFFFA0
:105C10008FFFFF1FFFFFFFFFFFFFFFFFF0000FFFE2
:105C2000FFFFFFFFFFFF9FFFFF9FFFFFFFFFFFFF44
:105C3000FFFFEF3FE7FFFFFFFFFFFFFF9FFFFFDFDC
:105C4000FFFFFFFFFFEFFFFFDF3FFFFFFFFFFFFF54
:105C5000FFFF3FFFFFCFFFFFFFFFE183FFFFCFFF0E
:105C6000FFFFFFFFFFFFFFFF3FFFFFCFFFFFFFFF34
:105C7000E321FFFFC7FF1FFFFFFFFFFFFFFFBFFF86
:105C8000FFCFFFFFFFFFDE7BFFFFE7860FFFFFFF7A
:105C9000FFFFFFFFBFFF7FDFFFFFFFFFDEFBFFFF19
:105CA000FF3CC7FFFFFFFFFFFFFF9FFF3F9FFFFF7F
:105CB000FFFFCCF7FFFFFF79EFFFFFFFFFFFFFFFC5
:105CC0009FFF001FFFFFFFFFE003FFFFFF7BCFFFF2
:105CD000FFFFFFFFFFFFCFFF001FFFFFFFFFF003EE
:105CE000FFFFFF119FFFFFFFFFFFFFFFC7FF001F29
:105CF000FFFFFFFFFFF3FFFFFF800FFFFFFFFFFF2F
:105D0000FFFFC1FF003FFFFFFFFFFFFFFFFFFFF0AF
:105D10000FFFFFFFFFFFFFFF807F003FFFFFFFFF41
:105D2000F81FFFFFFFFFDFFFFFFFFFFFFFFFFFFF8A
:105D30003FFFFFFFFFFFF007FFFFFFFFFFFFFFFF3A
:105D4000FFFFFFFFFFFF7FFFFFFFFFFFE7C3FFFF37
:105D5000FFE03FFFFFFFFFFFFFFFFFFFFFFFFFFF32
:105D6000FFFFDFF1FFFFFFC00FFFFFFFFFFFFFFFA0
:105D7000FFFFFFFFFFFFFFFFDFF1FFFFFFBF8FFF11
:105D8000FFFFFFFFFFFFBFFFFFDFFFFFFFFFCFF3BF
:105D9000FFFFFF7FC7FFFFFFFFFFFFFFBFFFFFDF2B
:105DA000FFFFFFFFE3F3FFFFFF7FC7FFFFFFFFFFE3
:105DB000FFFF8000001FFFFFFFFFE3E7FFFFFF1F64
:105DC000CFFFFFFFFFFFFFFF8000001FFFFFFFFF70
:105DD000FFFFFFFFFF8FDFFFFFFFFFFFFFFF8000E1
:105DE000001FFFFFFFFFFFFFFFFFFFCF3FFFFFFF92
:105DF000FFFFFFFF8000001FFFFFFFF9FFFBFFFF1A
:105E0000FFFFFFFFFFFFFFFFFFFF8000001FFFFFFF
:105E1000FFF00003FFFFFFFFFFFFFFFFFFFFFFFF9C
:105E20008000001FFFFFFFF80003FFFFFFE03FFFC0
:105E3000FFFFFFFFFFFF9FFDFF9FFFFFFFFFFC7FB7
:105E4000FFFFFFC01FFFFFFFFFFFFFFF9FFCFFDF04
:105E5000FFFFFFFFF81FFFFFFFB78FFFFFFFFFFFF1
:105E6000FFFF9FFC3FDFFFFFFFFFF387FFFFFF7791
:105E7000C7FFFFFFFFFFFFFF9FF81FFFFFFFFFFFB1
:105E8000E7C3FFFFFF37C7FFFFFFFFFFFFFF8FF8ED
:105E900007FFFFFFFFFFCFF3FFFFFF37C7FFFFFF46
:105EA000FFFFFFFF87F001FFFFFFFFFFFFFBFFFF8B
:105EB000FF87CFFFFFFFFFFFFFFF800000FFFFFF17
:105EC000FFFFFFFFFFFFFFC79FFFFFFFFFFFFFFF7A
:105ED000C001003FFFFFFFFFFFFFFFFFFFFFFFFFCE
:105EE000FFFFFFFFFFFFC003C01FFFFFFFFFFF0714
:105EF000FFFFFFFFFFFFFFFFFFFFFFFFE007E01FC8
:105F0000FFFFFFFFFC03FFFFFFFFFFFFFFFFFFFFA0
:105F1000FFFFF00FF81FFFFFFFFFFCF1FFFFFF1F68
:105F2000C7FFFFFFFFFFFFFFFC3FFE1FFFFFFFFE5E
:105F30001BF9FFFFFF9FC7FFFFFFFFFFFFFFFFFFF3
:105F4000FF1FFFFFFFF803F9FFFFFFFFFFFFFFFF4A
:105F5000FFFFFFFFFFFFFF9FFFFFFFF980FBFFFF3A
:105F6000FFFFFFFFFFFFFFFFFFFFFFFFFFDFFFFF61
